{
  "_format": "hh-sol-artifact-1",
  "contractName": "ArkreenMiner",
  "sourceName": "contracts/ArkreenMiner.sol",
  "abi": [
    {
      "inputs": [],
      "stateMutability": "nonpayable",
      "type": "constructor"
    },
    {
      "anonymous": false,
      "inputs": [
        {
          "indexed": false,
          "internalType": "address",
          "name": "previousAdmin",
          "type": "address"
        },
        {
          "indexed": false,
          "internalType": "address",
          "name": "newAdmin",
          "type": "address"
        }
      ],
      "name": "AdminChanged",
      "type": "event"
    },
    {
      "anonymous": false,
      "inputs": [
        {
          "indexed": true,
          "internalType": "address",
          "name": "owner",
          "type": "address"
        },
        {
          "indexed": true,
          "internalType": "address",
          "name": "approved",
          "type": "address"
        },
        {
          "indexed": true,
          "internalType": "uint256",
          "name": "tokenId",
          "type": "uint256"
        }
      ],
      "name": "Approval",
      "type": "event"
    },
    {
      "anonymous": false,
      "inputs": [
        {
          "indexed": true,
          "internalType": "address",
          "name": "owner",
          "type": "address"
        },
        {
          "indexed": true,
          "internalType": "address",
          "name": "operator",
          "type": "address"
        },
        {
          "indexed": false,
          "internalType": "bool",
          "name": "approved",
          "type": "bool"
        }
      ],
      "name": "ApprovalForAll",
      "type": "event"
    },
    {
      "anonymous": false,
      "inputs": [
        {
          "indexed": true,
          "internalType": "address",
          "name": "beacon",
          "type": "address"
        }
      ],
      "name": "BeaconUpgraded",
      "type": "event"
    },
    {
      "anonymous": false,
      "inputs": [
        {
          "indexed": false,
          "internalType": "uint8",
          "name": "version",
          "type": "uint8"
        }
      ],
      "name": "Initialized",
      "type": "event"
    },
    {
      "anonymous": false,
      "inputs": [
        {
          "indexed": true,
          "internalType": "address",
          "name": "owner",
          "type": "address"
        },
        {
          "indexed": true,
          "internalType": "address",
          "name": "miner",
          "type": "address"
        }
      ],
      "name": "MinerOnboarded",
      "type": "event"
    },
    {
      "anonymous": false,
      "inputs": [
        {
          "indexed": true,
          "internalType": "address",
          "name": "previousOwner",
          "type": "address"
        },
        {
          "indexed": true,
          "internalType": "address",
          "name": "newOwner",
          "type": "address"
        }
      ],
      "name": "OwnershipTransferred",
      "type": "event"
    },
    {
      "anonymous": false,
      "inputs": [
        {
          "indexed": false,
          "internalType": "address[]",
          "name": "owners",
          "type": "address[]"
        },
        {
          "indexed": false,
          "internalType": "address[]",
          "name": "miners",
          "type": "address[]"
        }
      ],
      "name": "RemoteMinersInBatch",
      "type": "event"
    },
    {
      "anonymous": false,
      "inputs": [
        {
          "indexed": true,
          "internalType": "address",
          "name": "owner",
          "type": "address"
        },
        {
          "indexed": true,
          "internalType": "address",
          "name": "miner",
          "type": "address"
        }
      ],
      "name": "StandardMinerOnboarded",
      "type": "event"
    },
    {
      "anonymous": false,
      "inputs": [
        {
          "indexed": true,
          "internalType": "address",
          "name": "from",
          "type": "address"
        },
        {
          "indexed": true,
          "internalType": "address",
          "name": "to",
          "type": "address"
        },
        {
          "indexed": true,
          "internalType": "uint256",
          "name": "tokenId",
          "type": "uint256"
        }
      ],
      "name": "Transfer",
      "type": "event"
    },
    {
      "anonymous": false,
      "inputs": [
        {
          "indexed": true,
          "internalType": "address",
          "name": "implementation",
          "type": "address"
        }
      ],
      "name": "Upgraded",
      "type": "event"
    },
    {
      "inputs": [
        {
          "internalType": "uint256",
          "name": "",
          "type": "uint256"
        }
      ],
      "name": "AllManagers",
      "outputs": [
        {
          "internalType": "address",
          "name": "",
          "type": "address"
        }
      ],
      "stateMutability": "view",
      "type": "function"
    },
    {
      "inputs": [
        {
          "internalType": "address",
          "name": "",
          "type": "address"
        }
      ],
      "name": "AllManufactures",
      "outputs": [
        {
          "internalType": "bool",
          "name": "",
          "type": "bool"
        }
      ],
      "stateMutability": "view",
      "type": "function"
    },
    {
      "inputs": [
        {
          "internalType": "uint256",
          "name": "",
          "type": "uint256"
        }
      ],
      "name": "AllMinerInfo",
      "outputs": [
        {
          "internalType": "address",
          "name": "mAddress",
          "type": "address"
        },
        {
          "internalType": "enum MinerType",
          "name": "mType",
          "type": "uint8"
        },
        {
          "internalType": "enum MinerStatus",
          "name": "mStatus",
          "type": "uint8"
        },
        {
          "internalType": "uint32",
          "name": "timestamp",
          "type": "uint32"
        }
      ],
      "stateMutability": "view",
      "type": "function"
    },
    {
      "inputs": [
        {
          "internalType": "address",
          "name": "",
          "type": "address"
        }
      ],
      "name": "AllMinersToken",
      "outputs": [
        {
          "internalType": "uint256",
          "name": "",
          "type": "uint256"
        }
      ],
      "stateMutability": "view",
      "type": "function"
    },
    {
      "inputs": [],
      "name": "DOMAIN_SEPARATOR",
      "outputs": [
        {
          "internalType": "bytes32",
          "name": "",
          "type": "bytes32"
        }
      ],
      "stateMutability": "view",
      "type": "function"
    },
    {
      "inputs": [
        {
          "internalType": "address",
          "name": "addrMiner",
          "type": "address"
        }
      ],
      "name": "GetMinerInfo",
      "outputs": [
        {
          "internalType": "address",
          "name": "owner",
          "type": "address"
        },
        {
          "components": [
            {
              "internalType": "address",
              "name": "mAddress",
              "type": "address"
            },
            {
              "internalType": "enum MinerType",
              "name": "mType",
              "type": "uint8"
            },
            {
              "internalType": "enum MinerStatus",
              "name": "mStatus",
              "type": "uint8"
            },
            {
              "internalType": "uint32",
              "name": "timestamp",
              "type": "uint32"
            }
          ],
          "internalType": "struct Miner",
          "name": "miner",
          "type": "tuple"
        }
      ],
      "stateMutability": "view",
      "type": "function"
    },
    {
      "inputs": [
        {
          "internalType": "address",
          "name": "owner",
          "type": "address"
        }
      ],
      "name": "GetMinersAddr",
      "outputs": [
        {
          "internalType": "address[]",
          "name": "minersAddr",
          "type": "address[]"
        }
      ],
      "stateMutability": "view",
      "type": "function"
    },
    {
      "inputs": [
        {
          "internalType": "address[]",
          "name": "manufactures",
          "type": "address[]"
        },
        {
          "internalType": "bool",
          "name": "yesOrNo",
          "type": "bool"
        }
      ],
      "name": "ManageManufactures",
      "outputs": [],
      "stateMutability": "nonpayable",
      "type": "function"
    },
    {
      "inputs": [],
      "name": "NAME",
      "outputs": [
        {
          "internalType": "string",
          "name": "",
          "type": "string"
        }
      ],
      "stateMutability": "view",
      "type": "function"
    },
    {
      "inputs": [],
      "name": "REMOTE_MINER_TYPEHASH",
      "outputs": [
        {
          "internalType": "bytes32",
          "name": "",
          "type": "bytes32"
        }
      ],
      "stateMutability": "view",
      "type": "function"
    },
    {
      "inputs": [
        {
          "internalType": "address",
          "name": "owner",
          "type": "address"
        },
        {
          "internalType": "address",
          "name": "miner",
          "type": "address"
        },
        {
          "components": [
            {
              "internalType": "uint8",
              "name": "v",
              "type": "uint8"
            },
            {
              "internalType": "bytes32",
              "name": "r",
              "type": "bytes32"
            },
            {
              "internalType": "bytes32",
              "name": "s",
              "type": "bytes32"
            }
          ],
          "internalType": "struct Sig",
          "name": "permitMiner",
          "type": "tuple"
        },
        {
          "components": [
            {
              "internalType": "address",
              "name": "token",
              "type": "address"
            },
            {
              "internalType": "uint256",
              "name": "value",
              "type": "uint256"
            },
            {
              "internalType": "uint256",
              "name": "deadline",
              "type": "uint256"
            },
            {
              "internalType": "uint8",
              "name": "v",
              "type": "uint8"
            },
            {
              "internalType": "bytes32",
              "name": "r",
              "type": "bytes32"
            },
            {
              "internalType": "bytes32",
              "name": "s",
              "type": "bytes32"
            }
          ],
          "internalType": "struct Signature",
          "name": "permitToPay",
          "type": "tuple"
        }
      ],
      "name": "RemoteMinerOnboard",
      "outputs": [],
      "stateMutability": "nonpayable",
      "type": "function"
    },
    {
      "inputs": [
        {
          "internalType": "address",
          "name": "owner",
          "type": "address"
        },
        {
          "internalType": "address",
          "name": "miner",
          "type": "address"
        },
        {
          "components": [
            {
              "internalType": "address",
              "name": "token",
              "type": "address"
            },
            {
              "internalType": "uint256",
              "name": "value",
              "type": "uint256"
            },
            {
              "internalType": "uint256",
              "name": "deadline",
              "type": "uint256"
            },
            {
              "internalType": "uint8",
              "name": "v",
              "type": "uint8"
            },
            {
              "internalType": "bytes32",
              "name": "r",
              "type": "bytes32"
            },
            {
              "internalType": "bytes32",
              "name": "s",
              "type": "bytes32"
            }
          ],
          "internalType": "struct Signature",
          "name": "permitMiner",
          "type": "tuple"
        }
      ],
      "name": "RemoteMinerOnboardApproved",
      "outputs": [],
      "stateMutability": "nonpayable",
      "type": "function"
    },
    {
      "inputs": [
        {
          "internalType": "address[]",
          "name": "owners",
          "type": "address[]"
        },
        {
          "internalType": "address[]",
          "name": "miners",
          "type": "address[]"
        }
      ],
      "name": "RemoteMinerOnboardInBatch",
      "outputs": [],
      "stateMutability": "nonpayable",
      "type": "function"
    },
    {
      "inputs": [
        {
          "internalType": "address",
          "name": "owner",
          "type": "address"
        },
        {
          "internalType": "address",
          "name": "miner",
          "type": "address"
        },
        {
          "components": [
            {
              "internalType": "address",
              "name": "token",
              "type": "address"
            },
            {
              "internalType": "uint256",
              "name": "value",
              "type": "uint256"
            },
            {
              "internalType": "uint256",
              "name": "deadline",
              "type": "uint256"
            },
            {
              "internalType": "uint8",
              "name": "v",
              "type": "uint8"
            },
            {
              "internalType": "bytes32",
              "name": "r",
              "type": "bytes32"
            },
            {
              "internalType": "bytes32",
              "name": "s",
              "type": "bytes32"
            }
          ],
          "internalType": "struct Signature",
          "name": "permitMiner",
          "type": "tuple"
        }
      ],
      "name": "RemoteMinerOnboardNative",
      "outputs": [],
      "stateMutability": "payable",
      "type": "function"
    },
    {
      "inputs": [],
      "name": "STANDARD_MINER_TYPEHASH",
      "outputs": [
        {
          "internalType": "bytes32",
          "name": "",
          "type": "bytes32"
        }
      ],
      "stateMutability": "view",
      "type": "function"
    },
    {
      "inputs": [],
      "name": "SYMBOL",
      "outputs": [
        {
          "internalType": "string",
          "name": "",
          "type": "string"
        }
      ],
      "stateMutability": "view",
      "type": "function"
    },
    {
      "inputs": [
        {
          "internalType": "uint256",
          "name": "minerID",
          "type": "uint256"
        },
        {
          "internalType": "enum MinerStatus",
          "name": "minerStatus",
          "type": "uint8"
        }
      ],
      "name": "SetMinersStatus",
      "outputs": [],
      "stateMutability": "nonpayable",
      "type": "function"
    },
    {
      "inputs": [
        {
          "internalType": "address",
          "name": "owner",
          "type": "address"
        },
        {
          "internalType": "address",
          "name": "miner",
          "type": "address"
        },
        {
          "internalType": "uint256",
          "name": "deadline",
          "type": "uint256"
        },
        {
          "components": [
            {
              "internalType": "uint8",
              "name": "v",
              "type": "uint8"
            },
            {
              "internalType": "bytes32",
              "name": "r",
              "type": "bytes32"
            },
            {
              "internalType": "bytes32",
              "name": "s",
              "type": "bytes32"
            }
          ],
          "internalType": "struct Sig",
          "name": "permitMiner",
          "type": "tuple"
        }
      ],
      "name": "StandardMinerOnboard",
      "outputs": [],
      "stateMutability": "nonpayable",
      "type": "function"
    },
    {
      "inputs": [
        {
          "internalType": "uint8",
          "name": "typeMiner",
          "type": "uint8"
        },
        {
          "internalType": "address[]",
          "name": "addressMiners",
          "type": "address[]"
        }
      ],
      "name": "UpdateMinerWhiteList",
      "outputs": [],
      "stateMutability": "nonpayable",
      "type": "function"
    },
    {
      "inputs": [
        {
          "internalType": "address",
          "name": "to",
          "type": "address"
        },
        {
          "internalType": "uint256",
          "name": "tokenId",
          "type": "uint256"
        }
      ],
      "name": "approve",
      "outputs": [],
      "stateMutability": "nonpayable",
      "type": "function"
    },
    {
      "inputs": [
        {
          "internalType": "address",
          "name": "owner",
          "type": "address"
        }
      ],
      "name": "balanceOf",
      "outputs": [
        {
          "internalType": "uint256",
          "name": "",
          "type": "uint256"
        }
      ],
      "stateMutability": "view",
      "type": "function"
    },
    {
      "inputs": [],
      "name": "baseURI",
      "outputs": [
        {
          "internalType": "string",
          "name": "",
          "type": "string"
        }
      ],
      "stateMutability": "view",
      "type": "function"
    },
    {
      "inputs": [
        {
          "internalType": "uint256",
          "name": "tokenId",
          "type": "uint256"
        }
      ],
      "name": "getApproved",
      "outputs": [
        {
          "internalType": "address",
          "name": "",
          "type": "address"
        }
      ],
      "stateMutability": "view",
      "type": "function"
    },
    {
      "inputs": [
        {
          "internalType": "address",
          "name": "_tokenAKRE",
          "type": "address"
        },
        {
          "internalType": "address",
          "name": "_tokenNative",
          "type": "address"
        },
        {
          "internalType": "address",
          "name": "_minerManager",
          "type": "address"
        },
        {
          "internalType": "address",
          "name": "_minerAuthority",
          "type": "address"
        }
      ],
      "name": "initialize",
      "outputs": [],
      "stateMutability": "nonpayable",
      "type": "function"
    },
    {
      "inputs": [
        {
          "internalType": "address",
          "name": "owner",
          "type": "address"
        },
        {
          "internalType": "address",
          "name": "operator",
          "type": "address"
        }
      ],
      "name": "isApprovedForAll",
      "outputs": [
        {
          "internalType": "bool",
          "name": "",
          "type": "bool"
        }
      ],
      "stateMutability": "view",
      "type": "function"
    },
    {
      "inputs": [
        {
          "internalType": "address",
          "name": "owner",
          "type": "address"
        }
      ],
      "name": "isOwner",
      "outputs": [
        {
          "internalType": "bool",
          "name": "",
          "type": "bool"
        }
      ],
      "stateMutability": "view",
      "type": "function"
    },
    {
      "inputs": [],
      "name": "name",
      "outputs": [
        {
          "internalType": "string",
          "name": "",
          "type": "string"
        }
      ],
      "stateMutability": "view",
      "type": "function"
    },
    {
      "inputs": [],
      "name": "owner",
      "outputs": [
        {
          "internalType": "address",
          "name": "",
          "type": "address"
        }
      ],
      "stateMutability": "view",
      "type": "function"
    },
    {
      "inputs": [
        {
          "internalType": "uint256",
          "name": "tokenId",
          "type": "uint256"
        }
      ],
      "name": "ownerOf",
      "outputs": [
        {
          "internalType": "address",
          "name": "",
          "type": "address"
        }
      ],
      "stateMutability": "view",
      "type": "function"
    },
    {
      "inputs": [],
      "name": "postUpdate",
      "outputs": [],
      "stateMutability": "nonpayable",
      "type": "function"
    },
    {
      "inputs": [],
      "name": "proxiableUUID",
      "outputs": [
        {
          "internalType": "bytes32",
          "name": "",
          "type": "bytes32"
        }
      ],
      "stateMutability": "view",
      "type": "function"
    },
    {
      "inputs": [],
      "name": "renounceOwnership",
      "outputs": [],
      "stateMutability": "nonpayable",
      "type": "function"
    },
    {
      "inputs": [
        {
          "internalType": "address",
          "name": "from",
          "type": "address"
        },
        {
          "internalType": "address",
          "name": "to",
          "type": "address"
        },
        {
          "internalType": "uint256",
          "name": "tokenId",
          "type": "uint256"
        }
      ],
      "name": "safeTransferFrom",
      "outputs": [],
      "stateMutability": "nonpayable",
      "type": "function"
    },
    {
      "inputs": [
        {
          "internalType": "address",
          "name": "from",
          "type": "address"
        },
        {
          "internalType": "address",
          "name": "to",
          "type": "address"
        },
        {
          "internalType": "uint256",
          "name": "tokenId",
          "type": "uint256"
        },
        {
          "internalType": "bytes",
          "name": "data",
          "type": "bytes"
        }
      ],
      "name": "safeTransferFrom",
      "outputs": [],
      "stateMutability": "nonpayable",
      "type": "function"
    },
    {
      "inputs": [
        {
          "internalType": "address",
          "name": "operator",
          "type": "address"
        },
        {
          "internalType": "bool",
          "name": "approved",
          "type": "bool"
        }
      ],
      "name": "setApprovalForAll",
      "outputs": [],
      "stateMutability": "nonpayable",
      "type": "function"
    },
    {
      "inputs": [
        {
          "internalType": "string",
          "name": "newBaseURI",
          "type": "string"
        }
      ],
      "name": "setBaseURI",
      "outputs": [],
      "stateMutability": "nonpayable",
      "type": "function"
    },
    {
      "inputs": [
        {
          "internalType": "uint256",
          "name": "managerType",
          "type": "uint256"
        },
        {
          "internalType": "address",
          "name": "managerAddress",
          "type": "address"
        }
      ],
      "name": "setManager",
      "outputs": [],
      "stateMutability": "nonpayable",
      "type": "function"
    },
    {
      "inputs": [
        {
          "internalType": "address",
          "name": "native",
          "type": "address"
        }
      ],
      "name": "setNativeToken",
      "outputs": [],
      "stateMutability": "nonpayable",
      "type": "function"
    },
    {
      "inputs": [
        {
          "internalType": "bytes4",
          "name": "interfaceId",
          "type": "bytes4"
        }
      ],
      "name": "supportsInterface",
      "outputs": [
        {
          "internalType": "bool",
          "name": "",
          "type": "bool"
        }
      ],
      "stateMutability": "view",
      "type": "function"
    },
    {
      "inputs": [],
      "name": "symbol",
      "outputs": [
        {
          "internalType": "string",
          "name": "",
          "type": "string"
        }
      ],
      "stateMutability": "view",
      "type": "function"
    },
    {
      "inputs": [],
      "name": "tokenAKRE",
      "outputs": [
        {
          "internalType": "address",
          "name": "",
          "type": "address"
        }
      ],
      "stateMutability": "view",
      "type": "function"
    },
    {
      "inputs": [
        {
          "internalType": "uint256",
          "name": "index",
          "type": "uint256"
        }
      ],
      "name": "tokenByIndex",
      "outputs": [
        {
          "internalType": "uint256",
          "name": "",
          "type": "uint256"
        }
      ],
      "stateMutability": "view",
      "type": "function"
    },
    {
      "inputs": [],
      "name": "tokenNative",
      "outputs": [
        {
          "internalType": "address",
          "name": "",
          "type": "address"
        }
      ],
      "stateMutability": "view",
      "type": "function"
    },
    {
      "inputs": [
        {
          "internalType": "address",
          "name": "owner",
          "type": "address"
        },
        {
          "internalType": "uint256",
          "name": "index",
          "type": "uint256"
        }
      ],
      "name": "tokenOfOwnerByIndex",
      "outputs": [
        {
          "internalType": "uint256",
          "name": "",
          "type": "uint256"
        }
      ],
      "stateMutability": "view",
      "type": "function"
    },
    {
      "inputs": [
        {
          "internalType": "uint256",
          "name": "tokenId",
          "type": "uint256"
        }
      ],
      "name": "tokenURI",
      "outputs": [
        {
          "internalType": "string",
          "name": "",
          "type": "string"
        }
      ],
      "stateMutability": "view",
      "type": "function"
    },
    {
      "inputs": [],
      "name": "totalStandardMiner",
      "outputs": [
        {
          "internalType": "uint256",
          "name": "",
          "type": "uint256"
        }
      ],
      "stateMutability": "view",
      "type": "function"
    },
    {
      "inputs": [],
      "name": "totalSupply",
      "outputs": [
        {
          "internalType": "uint256",
          "name": "",
          "type": "uint256"
        }
      ],
      "stateMutability": "view",
      "type": "function"
    },
    {
      "inputs": [
        {
          "internalType": "address",
          "name": "from",
          "type": "address"
        },
        {
          "internalType": "address",
          "name": "to",
          "type": "address"
        },
        {
          "internalType": "uint256",
          "name": "tokenId",
          "type": "uint256"
        }
      ],
      "name": "transferFrom",
      "outputs": [],
      "stateMutability": "nonpayable",
      "type": "function"
    },
    {
      "inputs": [
        {
          "internalType": "address",
          "name": "newOwner",
          "type": "address"
        }
      ],
      "name": "transferOwnership",
      "outputs": [],
      "stateMutability": "nonpayable",
      "type": "function"
    },
    {
      "inputs": [
        {
          "internalType": "address",
          "name": "newImplementation",
          "type": "address"
        }
      ],
      "name": "upgradeTo",
      "outputs": [],
      "stateMutability": "nonpayable",
      "type": "function"
    },
    {
      "inputs": [
        {
          "internalType": "address",
          "name": "newImplementation",
          "type": "address"
        },
        {
          "internalType": "bytes",
          "name": "data",
          "type": "bytes"
        }
      ],
      "name": "upgradeToAndCall",
      "outputs": [],
      "stateMutability": "payable",
      "type": "function"
    },
    {
      "inputs": [
        {
          "internalType": "address",
          "name": "",
          "type": "address"
        }
      ],
      "name": "whiteListMiner",
      "outputs": [
        {
          "internalType": "uint8",
          "name": "",
          "type": "uint8"
        }
      ],
      "stateMutability": "view",
      "type": "function"
    },
    {
      "inputs": [
        {
          "internalType": "address",
          "name": "token",
          "type": "address"
        }
      ],
      "name": "withdraw",
      "outputs": [],
      "stateMutability": "nonpayable",
      "type": "function"
    }
  ],
  "bytecode": "0x60a0604052306080523480156200001557600080fd5b506200002062000026565b620000e8565b600054610100900460ff1615620000935760405162461bcd60e51b815260206004820152602760248201527f496e697469616c697a61626c653a20636f6e747261637420697320696e697469604482015266616c697a696e6760c81b606482015260840160405180910390fd5b60005460ff9081161015620000e6576000805460ff191660ff9081179091556040519081527f7f26b83ff96e1f2b6a682f133852f6798a09c465da95921460cefb38474024989060200160405180910390a15b565b6080516149d16200012e60003960008181610eed01528181610f2d01528181610fd101528181611011015281816112150152818161158d01526115cd01526149d16000f3fe60806040526004361061025a5760003560e01c806301ffc9a71461025f57806302eb727f1461029457806306fdde03146102b957806307e58fdd146102db578063081812fc1461031f57806308b0c2211461033f578063095ea7b31461036157806318160ddd146103835780631ff60eb7146103995780632392fec5146103b957806323b872dd146103e657806328152c20146104065780632911c27d146104495780632f54bf6e146104695780632f745c59146104895780633644e515146104a95780633659cfe6146104c057806342842e0e146104e05780634f1ef286146105005780634f6ccce71461051357806351cff8d91461053357806352d1902d1461055357806355f804b314610568578063588d78ae1461058857806363053464146105a85780636352211e146105d957806368f50b8a146105f95780636c0360eb1461061a5780636d2bc1491461062f5780636da1e1021461064f57806370a082311461066f578063715018a61461068f5780637238fca8146106a4578063774f5eeb146106b95780638c2c9ac0146106d95780638da5cb5b1461074757806395d89b411461075c578063a22cb46514610771578063a3f4df7e14610791578063a5ce546e146107ca578063ac083242146107ea578063b88d4fde1461080b578063bc04b2111461082b578063c3699a6114610859578063c6b29aab1461087b578063c87b56dd1461089b578063d39f4811146108bb578063d91296ba146108db578063e985e9c5146108ee578063f2fde38b1461090e578063f76f8d781461092e578063f8c8765e1461095f578063fc600d4d1461097f575b600080fd5b34801561026b57600080fd5b5061027f61027a366004613afc565b6109ad565b60405190151581526020015b60405180910390f35b3480156102a057600080fd5b506102ab6101605481565b60405190815260200161028b565b3480156102c557600080fd5b506102ce6109be565b60405161028b9190613b71565b3480156102e757600080fd5b506103126102f6366004613b84565b610166602052600090815260409020546001600160a01b031681565b60405161028b9190613b9d565b34801561032b57600080fd5b5061031261033a366004613b84565b610a50565b34801561034b57600080fd5b506102ab6000805160206149a583398151915281565b34801561036d57600080fd5b5061038161037c366004613bcd565b610a77565b005b34801561038f57600080fd5b5061012f546102ab565b3480156103a557600080fd5b506103816103b4366004613ca3565b610b92565b3480156103c557600080fd5b506103d96103d4366004613d4a565b610d03565b60405161028b9190613d65565b3480156103f257600080fd5b50610381610401366004613db2565b610dd0565b34801561041257600080fd5b50610437610421366004613d4a565b6101686020526000908152604090205460ff1681565b60405160ff909116815260200161028b565b34801561045557600080fd5b50610381610464366004613dee565b610e01565b34801561047557600080fd5b5061027f610484366004613d4a565b610e38565b34801561049557600080fd5b506102ab6104a4366004613bcd565b610e4b565b3480156104b557600080fd5b506102ab61015f5481565b3480156104cc57600080fd5b506103816104db366004613d4a565b610ee2565b3480156104ec57600080fd5b506103816104fb366004613db2565b610fab565b61038161050e366004613eaf565b610fc6565b34801561051f57600080fd5b506102ab61052e366004613b84565b611080565b34801561053f57600080fd5b5061038161054e366004613d4a565b611115565b34801561055f57600080fd5b506102ab611208565b34801561057457600080fd5b50610381610583366004613efc565b6112b6565b34801561059457600080fd5b506103816105a3366004613f44565b6112d2565b3480156105b457600080fd5b5061027f6105c3366004613d4a565b6101646020526000908152604090205460ff1681565b3480156105e557600080fd5b506103126105f4366004613b84565b611374565b34801561060557600080fd5b5061016354610312906001600160a01b031681565b34801561062657600080fd5b506102ce6113a9565b34801561063b57600080fd5b5061038161064a366004613f78565b611438565b34801561065b57600080fd5b5061038161066a366004613d4a565b6114bd565b34801561067b57600080fd5b506102ab61068a366004613d4a565b6114e8565b34801561069b57600080fd5b5061038161156e565b3480156106b057600080fd5b50610381611582565b3480156106c557600080fd5b506103816106d4366004614008565b61162b565b3480156106e557600080fd5b506107376106f4366004613b84565b610165602052600090815260409020546001600160a01b0381169060ff600160a01b8204811691600160a81b81049091169063ffffffff600160b01b9091041684565b60405161028b94939291906140a7565b34801561075357600080fd5b50610312611897565b34801561076857600080fd5b506102ce6118a6565b34801561077d57600080fd5b5061038161078c3660046140f8565b6118b5565b34801561079d57600080fd5b506102ce6040518060400160405280600d81526020016c20b935b932b2b71026b4b732b960991b81525081565b3480156107d657600080fd5b506103816107e5366004614124565b6118c0565b3480156107f657600080fd5b5061016254610312906001600160a01b031681565b34801561081757600080fd5b50610381610826366004614176565b611a8d565b34801561083757600080fd5b5061084b610846366004613d4a565b611ac5565b60405161028b9291906141dd565b34801561086557600080fd5b506102ab60008051602061489e83398151915281565b34801561088757600080fd5b5061038161089636600461423a565b611ba7565b3480156108a757600080fd5b506102ce6108b6366004613b84565b611c21565b3480156108c757600080fd5b506103816108d6366004614290565b611c2c565b6103816108e9366004613f78565b611ff5565b3480156108fa57600080fd5b5061027f6109093660046142e7565b6120e8565b34801561091a57600080fd5b50610381610929366004613d4a565b612117565b34801561093a57600080fd5b506102ce60405180604001604052806005815260200164414b52454d60d81b81525081565b34801561096b57600080fd5b5061038161097a366004614311565b61218d565b34801561098b57600080fd5b506102ab61099a366004613d4a565b6101676020526000908152604090205481565b60006109b88261247e565b92915050565b606060fb80546109cd9061435a565b80601f01602080910402602001604051908101604052809291908181526020018280546109f99061435a565b8015610a465780601f10610a1b57610100808354040283529160200191610a46565b820191906000526020600020905b815481529060010190602001808311610a2957829003601f168201915b5050505050905090565b6000610a5b826124a3565b50600090815260ff60205260409020546001600160a01b031690565b6000610a8282611374565b9050806001600160a01b0316836001600160a01b03161415610af55760405162461bcd60e51b815260206004820152602160248201527f4552433732313a20617070726f76616c20746f2063757272656e74206f776e656044820152603960f91b60648201526084015b60405180910390fd5b336001600160a01b0382161480610b115750610b1181336120e8565b610b835760405162461bcd60e51b815260206004820152603e60248201527f4552433732313a20617070726f76652063616c6c6572206973206e6f7420746f60448201527f6b656e206f776e6572206e6f7220617070726f76656420666f7220616c6c00006064820152608401610aec565b610b8d83836124c8565b505050565b806040015180421115610bb75760405162461bcd60e51b8152600401610aec90614395565b6040805160c08101825283516001600160a01b03168152602080850151818301528483015182840152855160ff16606083015285015160808201529084015160a0820152610c06868683612536565b60003384516020860151604080880151606089015160808a015160a08b0151935163d505accf60e01b81526001600160a01b0380891660048301523060248301526044820196909652606481019390935260ff909116608483015260a482015260c4810191909152929350169063d505accf9060e401600060405180830381600087803b158015610c9657600080fd5b505af1158015610caa573d6000803e3d6000fd5b50505050610cb88787612702565b610ccc84600001518230876020015161283a565b856001600160a01b0316876001600160a01b03166000805160206148fe83398151915260405160405180910390a350505050505050565b60606000610d10836114e8565b9050806001600160401b03811115610d2a57610d2a613bf7565b604051908082528060200260200182016040528015610d53578160200160208202803683370190505b50915060005b81811015610dc9576000610d6d8583610e4b565b6000818152610165602052604090205485519192506001600160a01b031690859084908110610d9e57610d9e6143c5565b6001600160a01b03909216602092830291909101909101525080610dc1816143f1565b915050610d59565b5050919050565b610dda3382612962565b610df65760405162461bcd60e51b8152600401610aec9061440c565b610b8d8383836129c1565b610e09612b56565b6000918252610166602052604090912080546001600160a01b0319166001600160a01b03909216919091179055565b600080610e44836114e8565b1192915050565b6000610e56836114e8565b8210610eb85760405162461bcd60e51b815260206004820152602b60248201527f455243373231456e756d657261626c653a206f776e657220696e646578206f7560448201526a74206f6620626f756e647360a81b6064820152608401610aec565b506001600160a01b0391909116600090815261012d60209081526040808320938352929052205490565b306001600160a01b037f0000000000000000000000000000000000000000000000000000000000000000161415610f2b5760405162461bcd60e51b8152600401610aec9061445a565b7f00000000000000000000000000000000000000000000000000000000000000006001600160a01b0316610f5d612bb5565b6001600160a01b031614610f835760405162461bcd60e51b8152600401610aec90614494565b610f8c81612bd1565b60408051600080825260208201909252610fa891839190612bd9565b50565b610b8d83838360405180602001604052806000815250611a8d565b306001600160a01b037f000000000000000000000000000000000000000000000000000000000000000016141561100f5760405162461bcd60e51b8152600401610aec9061445a565b7f00000000000000000000000000000000000000000000000000000000000000006001600160a01b0316611041612bb5565b6001600160a01b0316146110675760405162461bcd60e51b8152600401610aec90614494565b61107082612bd1565b61107c82826001612bd9565b5050565b600061108c61012f5490565b82106110ef5760405162461bcd60e51b815260206004820152602c60248201527f455243373231456e756d657261626c653a20676c6f62616c20696e646578206f60448201526b7574206f6620626f756e647360a01b6064820152608401610aec565b61012f8281548110611103576111036143c5565b90600052602060002001549050919050565b61111d612b56565b60026000526101666020527f2f63f848a2464926e1a1821341e012527a66db6200f9ba39ec36abfd403f8277546001600160a01b03168061115b5750335b610163546001600160a01b038381169116141561117c5761107c8147612d53565b6040516370a0823160e01b81526000906001600160a01b038416906370a08231906111ab903090600401613b9d565b60206040518083038186803b1580156111c357600080fd5b505afa1580156111d7573d6000803e3d6000fd5b505050506040513d601f19601f820116820180604052508101906111fb91906144ce565b9050610b8d838383612e1c565b6000306001600160a01b037f000000000000000000000000000000000000000000000000000000000000000016146112a35760405162461bcd60e51b815260206004820152603860248201527f555550535570677261646561626c653a206d757374206e6f742062652063616c6044820152771b1959081d1a1c9bdd59da0819195b1959d85d1958d85b1b60421b6064820152608401610aec565b506000805160206148de83398151915290565b6112be612b56565b805161107c90610161906020840190613a24565b6112da612b56565b60008160038111156112ee576112ee614073565b14156113395760405162461bcd60e51b815260206004820152601a602482015279105c9adc99595b88135a5b995c8e8815dc9bdb99c8125b9c1d5d60321b6044820152606401610aec565b600082815261016560205260409020805482919060ff60a81b1916600160a81b83600381111561136b5761136b614073565b02179055505050565b600081815260fd60205260408120546001600160a01b0316806109b85760405162461bcd60e51b8152600401610aec906144e7565b61016180546113b79061435a565b80601f01602080910402602001604051908101604052809291908181526020018280546113e39061435a565b80156114305780601f1061140557610100808354040283529160200191611430565b820191906000526020600020905b81548152906001019060200180831161141357829003601f168201915b505050505081565b80604001518042111561145d5760405162461bcd60e51b8152600401610aec90614395565b611468848484612536565b6114728484612702565b815160208301513391611488918390309061283a565b836001600160a01b0316856001600160a01b03166000805160206148fe83398151915260405160405180910390a35050505050565b6114c5612b56565b61016380546001600160a01b0319166001600160a01b0392909216919091179055565b60006001600160a01b0382166115525760405162461bcd60e51b815260206004820152602960248201527f4552433732313a2061646472657373207a65726f206973206e6f7420612076616044820152683634b21037bbb732b960b91b6064820152608401610aec565b506001600160a01b0316600090815260fe602052604090205490565b611576612b56565b6115806000612f30565b565b306001600160a01b037f00000000000000000000000000000000000000000000000000000000000000001614156115cb5760405162461bcd60e51b8152600401610aec9061445a565b7f00000000000000000000000000000000000000000000000000000000000000006001600160a01b03166115fd612bb5565b6001600160a01b0316146116235760405162461bcd60e51b8152600401610aec90614494565b611580612b56565b60008052610166602052600080516020614985833981519152546001600160a01b0316336001600160a01b0316146116755760405162461bcd60e51b8152600401610aec90614519565b8281146116ce5760405162461bcd60e51b815260206004820152602160248201527f41726b7265656e204d696e65723a2057726f6e672041646472657373204c69736044820152601d60fa1b6064820152608401610aec565b6116d6613aa8565b60036020820152600160408201524263ffffffff16606082015260005b8481101561185257600061170761012f5490565b61171290600161454e565b9050848483818110611726576117266143c5565b905060200201602081019061173b9190613d4a565b6001600160a01b0316835261177687878481811061175b5761175b6143c5565b90506020020160208101906117709190613d4a565b82612f82565b82516001600160a01b0390811660009081526101676020908152604080832085905584835261016582529091208551815493166001600160a01b03198416811782559186015186939192909183916001600160a81b031990911617600160a01b8360038111156117e8576117e8614073565b021790555060408201518154829060ff60a81b1916600160a81b83600381111561181457611814614073565b021790555060609190910151815463ffffffff909116600160b01b0263ffffffff60b01b19909116179055508061184a816143f1565b9150506116f3565b507f6e4fb56c14baff45949f93efd3ad5051de7dcd3abdbad7d3317b50d6f60592068585858560405161188894939291906145ad565b60405180910390a15050505050565b6033546001600160a01b031690565b606060fc80546109cd9061435a565b61107c338383612f9c565b60008052610166602052600080516020614985833981519152546001600160a01b0316336001600160a01b03161461190a5760405162461bcd60e51b8152600401610aec90614519565b6000805b82811015611a8657838382818110611928576119286143c5565b905060200201602081019061193d9190613d4a565b91508460ff1660ff1415611971576001600160a01b038216600090815261016860205260409020805460ff19169055611a74565b6001600160a01b038216158015906119985750611996826001600160a01b0316613068565b155b6119e35760405162461bcd60e51b815260206004820152601c60248201527b41726b7265656e204d696e65723a2057726f6e67204164647265737360201b6044820152606401610aec565b6001600160a01b0382166000908152610168602052604090205460ff1615611a4d5760405162461bcd60e51b815260206004820152601e60248201527f41726b7265656e204d696e65723a204d696e65727320526570656174656400006044820152606401610aec565b6001600160a01b038216600090815261016860205260409020805460ff191660ff87161790555b80611a7e816143f1565b91505061190e565b5050505050565b611a973383612962565b611ab35760405162461bcd60e51b8152600401610aec9061440c565b611abf84848484613077565b50505050565b6000611acf613aa8565b6001600160a01b03831660009081526101676020526040902054611af281611374565b6000828152610165602090815260409182902082516080810190935280546001600160a01b0381168452939650919290830190600160a01b900460ff166003811115611b4057611b40614073565b6003811115611b5157611b51614073565b81528154602090910190600160a81b900460ff166003811115611b7657611b76614073565b6003811115611b8757611b87614073565b81529054600160b01b900463ffffffff1660209091015292949293505050565b611baf612b56565b60005b82811015611abf57816101646000868685818110611bd257611bd26143c5565b9050602002016020810190611be79190613d4a565b6001600160a01b031681526020810191909152604001600020805460ff191691151591909117905580611c19816143f1565b915050611bb2565b60606109b8826130aa565b8180421115611c4d5760405162461bcd60e51b8152600401610aec90614395565b611c5f846001600160a01b0316613068565b15611cac5760405162461bcd60e51b815260206004820152601e60248201527f41726b7265656e204d696e65723a204e6f7420454f41204164647265737300006044820152606401610aec565b6001600160a01b0384166000908152610167602052604090205415611ce35760405162461bcd60e51b8152600401610aec906145df565b6001600160a01b0384166000908152610168602052604090205460ff16600214611d1f5760405162461bcd60e51b8152600401610aec90614616565b604080516000805160206149a583398151915260208201526001600160a01b038088169282019290925290851660608201526080810184905260009060a001604051602081830303815290604052805190602001209050600061015f5482604051602001611d8e92919061464a565b6040516020818303038152906040528051906020012090506000600182866000016020810190611dbe9190614665565b8760200135886040013560405160008152602001604052604051611de59493929190614680565b6020604051602081039080840390855afa158015611e07573d6000803e3d6000fd5b5050604051601f1901519150506001600160a01b03811615801590611e5157506001600052610166602052600080516020614965833981519152546001600160a01b038281169116145b611e6d5760405162461bcd60e51b8152600401610aec9061469e565b611e75613aa8565b6001600160a01b038816815260026020820152600160408201524263ffffffff16606082015261012f54600090611ead90600161454e565b9050611eb98a82612f82565b6001600160a01b03808a1660009081526101676020908152604080832085905584835261016582529091208451815493166001600160a01b03198416811782559185015185939192909183916001600160a81b031990911617600160a01b836003811115611f2957611f29614073565b021790555060408201518154829060ff60a81b1916600160a81b836003811115611f5557611f55614073565b021790555060609190910151815463ffffffff909116600160b01b0263ffffffff60b01b19909116179055610160805460019190600090611f9790849061454e565b90915550506001600160a01b03808a1660008181526101686020526040808220805460ff191690555191928d16917f873c21dcfeeb595552664e701f46032929aa89f45839a6ee759a7eb8285e6a959190a350505050505050505050565b80604001518042111561201a5760405162461bcd60e51b8152600401610aec90614395565b610163546001600160a01b03161580159061204557508151610163546001600160a01b039081169116145b80156120545750816020015134145b61209f5760405162461bcd60e51b815260206004820152601c60248201527b20b935b932b2b71026b4b732b91d102830bcb6b2b73a1032b93937b960211b6044820152606401610aec565b6120aa848484612536565b6120b48484612702565b826001600160a01b0316846001600160a01b03166000805160206148fe83398151915260405160405180910390a350505050565b6001600160a01b0391821660009081526101006020908152604080832093909416825291909152205460ff1690565b61211f612b56565b6001600160a01b0381166121845760405162461bcd60e51b815260206004820152602660248201527f4f776e61626c653a206e6577206f776e657220697320746865207a65726f206160448201526564647265737360d01b6064820152608401610aec565b610fa881612f30565b600054610100900460ff16158080156121ad5750600054600160ff909116105b806121ce57506121bc30613068565b1580156121ce575060005460ff166001145b6122315760405162461bcd60e51b815260206004820152602e60248201527f496e697469616c697a61626c653a20636f6e747261637420697320616c72656160448201526d191e481a5b9a5d1a585b1a5e995960921b6064820152608401610aec565b6000805460ff191660011790558015612254576000805461ff0019166101001790555b61225c613111565b612264613141565b6122b06040518060400160405280600d81526020016c20b935b932b2b71026b4b732b960991b81525060405180604001604052806005815260200164414b52454d60d81b815250613168565b61016280546001600160a01b038781166001600160a01b03199283161790925561016380548784169083161790556101666020908152600080516020614985833981519152805483168785161790556001600052600080516020614965833981519152805490921692851692909217905560408051808201909152601f8082527f68747470733a2f2f7777772e61726b7265656e2e636f6d2f6d696e6572732f0091909201908152612366916101619190613a24565b50604080518082018252600d81526c20b935b932b2b71026b4b732b960991b6020918201528151808301835260018152603160f81b9082015281517f8b73c3c69bb8fe3d512ecc4cf759cc79239f7b179b0ffacaa9a75d522b39400f818301527fdfb64707a6e6c3b1d7199c3a20c704919e88a0405d2c210ce0c32a9d385a123b818401527fc89efdaa54c0f20c7adf612882df0950f5a951637e0307cdcb4c672f298b8bc660608201524660808201523060a0808301919091528351808303909101815260c0909101909252815191012061015f558015611a86576000805461ff0019169055604051600181527f7f26b83ff96e1f2b6a682f133852f6798a09c465da95921460cefb384740249890602001611888565b60006001600160e01b0319821663780e9d6360e01b14806109b857506109b8826131b6565b6124ac81613206565b610fa85760405162461bcd60e51b8152600401610aec906144e7565b600081815260ff6020526040902080546001600160a01b0319166001600160a01b03841690811790915581906124fd82611374565b6001600160a01b03167f8c5be1e5ebec7d5bd14f71427d1e84f3dd0314c0f7b2291e5b200ac8c7c3b92560405160405180910390a45050565b6001600160a01b0382166000908152610168602052604090205460ff166003146125725760405162461bcd60e51b8152600401610aec90614616565b6001600160a01b03821660009081526101676020526040902054156125a95760405162461bcd60e51b8152600401610aec906145df565b8051602080830151604080850151815160008051602061489e833981519152818601526001600160a01b03898116828501528881166060830152909516608086015260a085019290925260c0808501929092528051808503909201825260e084019052805191012061015f5490916000916126299184906101000161464a565b6040516020818303038152906040528051906020012090506000600182856060015186608001518760a00151604051600081526020016040526040516126729493929190614680565b6020604051602081039080840390855afa158015612694573d6000803e3d6000fd5b5050604051601f1901519150506001600160a01b038116158015906126de57506001600052610166602052600080516020614965833981519152546001600160a01b038281169116145b6126fa5760405162461bcd60e51b8152600401610aec9061469e565b505050505050565b61270a613aa8565b6001600160a01b038216815260036020820152600160408201524263ffffffff16606082015261012f5460009061274290600161454e565b905061274e8482612f82565b6001600160a01b0380841660009081526101676020908152604080832085905584835261016582529091208451815493166001600160a01b03198416811782559185015185939192909183916001600160a81b031990911617600160a01b8360038111156127be576127be614073565b021790555060408201518154829060ff60a81b1916600160a81b8360038111156127ea576127ea614073565b021790555060609190910151815463ffffffff909116600160b01b0263ffffffff60b01b1990911617905550506001600160a01b0316600090815261016860205260409020805460ff1916905550565b604080516001600160a01b0385811660248301528481166044830152606480830185905283518084039091018152608490920183526020820180516001600160e01b03166323b872dd60e01b179052915160009283929088169161289e91906146d3565b6000604051808303816000865af19150503d80600081146128db576040519150601f19603f3d011682016040523d82523d6000602084013e6128e0565b606091505b509150915081801561290a57508051158061290a57508080602001905181019061290a91906146ef565b6126fa5760405162461bcd60e51b8152602060048201526024808201527f5472616e7366657248656c7065723a205452414e534645525f46524f4d5f46416044820152631253115160e21b6064820152608401610aec565b60008061296e83611374565b9050806001600160a01b0316846001600160a01b03161480612995575061299581856120e8565b806129b95750836001600160a01b03166129ae84610a50565b6001600160a01b0316145b949350505050565b826001600160a01b03166129d482611374565b6001600160a01b031614612a385760405162461bcd60e51b815260206004820152602560248201527f4552433732313a207472616e736665722066726f6d20696e636f72726563742060448201526437bbb732b960d91b6064820152608401610aec565b6001600160a01b038216612a9a5760405162461bcd60e51b8152602060048201526024808201527f4552433732313a207472616e7366657220746f20746865207a65726f206164646044820152637265737360e01b6064820152608401610aec565b612aa5838383613223565b612ab06000826124c8565b6001600160a01b038316600090815260fe60205260408120805460019290612ad990849061470c565b90915550506001600160a01b038216600090815260fe60205260408120805460019290612b0790849061454e565b9091555050600081815260fd602052604080822080546001600160a01b0319166001600160a01b03868116918217909255915184939187169160008051602061494583398151915291a4505050565b33612b5f611897565b6001600160a01b0316146115805760405162461bcd60e51b815260206004820181905260248201527f4f776e61626c653a2063616c6c6572206973206e6f7420746865206f776e65726044820152606401610aec565b6000805160206148de833981519152546001600160a01b031690565b610fa8612b56565b7f4910fdfa16fed3260ed0e7147f7cc6da11a60208b5b9406d12a635614ffd91435460ff1615612c0c57610b8d836132dd565b826001600160a01b03166352d1902d6040518163ffffffff1660e01b815260040160206040518083038186803b158015612c4557600080fd5b505afa925050508015612c75575060408051601f3d908101601f19168201909252612c72918101906144ce565b60015b612cd85760405162461bcd60e51b815260206004820152602e60248201527f45524331393637557067726164653a206e657720696d706c656d656e7461746960448201526d6f6e206973206e6f74205555505360901b6064820152608401610aec565b6000805160206148de8339815191528114612d475760405162461bcd60e51b815260206004820152602960248201527f45524331393637557067726164653a20756e737570706f727465642070726f786044820152681a58589b195555525160ba1b6064820152608401610aec565b50610b8d838383613377565b604080516000808252602082019092526001600160a01b038416908390604051612d7d91906146d3565b60006040518083038185875af1925050503d8060008114612dba576040519150601f19603f3d011682016040523d82523d6000602084013e612dbf565b606091505b5050905080610b8d5760405162461bcd60e51b815260206004820152602360248201527f5472616e7366657248656c7065723a204554485f5452414e534645525f46414960448201526213115160ea1b6064820152608401610aec565b604080516001600160a01b038481166024830152604480830185905283518084039091018152606490920183526020820180516001600160e01b031663a9059cbb60e01b1790529151600092839290871691612e7891906146d3565b6000604051808303816000865af19150503d8060008114612eb5576040519150601f19603f3d011682016040523d82523d6000602084013e612eba565b606091505b5091509150818015612ee4575080511580612ee4575080806020019051810190612ee491906146ef565b611a865760405162461bcd60e51b815260206004820152601f60248201527f5472616e7366657248656c7065723a205452414e534645525f4641494c4544006044820152606401610aec565b603380546001600160a01b038381166001600160a01b0319831681179093556040519116919082907f8be0079c531659141344cd1fd0a4f28419497f9722a3daafe3b4186f6b6457e090600090a35050565b61107c82826040518060200160405280600081525061339c565b816001600160a01b0316836001600160a01b03161415612ffa5760405162461bcd60e51b815260206004820152601960248201527822a9219b99189d1030b8383937bb32903a379031b0b63632b960391b6044820152606401610aec565b6001600160a01b0383811660008181526101006020908152604080832094871680845294825291829020805460ff191686151590811790915591519182527f17307eab39ab6107e8899845ad3d59bd9653f200f220920489ca2b5937696c31910160405180910390a3505050565b6001600160a01b03163b151590565b6130828484846129c1565b61308e848484846133cf565b611abf5760405162461bcd60e51b8152600401610aec90614723565b60606130b5826124a3565b60006130bf6134e3565b905060008151116130df576040518060200160405280600081525061310a565b806130e9846134f3565b6040516020016130fa929190614775565b6040516020818303038152906040525b9392505050565b600054610100900460ff166131385760405162461bcd60e51b8152600401610aec906147a4565b61158033612f30565b600054610100900460ff166115805760405162461bcd60e51b8152600401610aec906147a4565b600054610100900460ff1661318f5760405162461bcd60e51b8152600401610aec906147a4565b81516131a29060fb906020850190613a24565b508051610b8d9060fc906020840190613a24565b60006001600160e01b031982166380ac58cd60e01b14806131e757506001600160e01b03198216635b5e139f60e01b145b806109b857506301ffc9a760e01b6001600160e01b03198316146109b8565b600090815260fd60205260409020546001600160a01b0316151590565b6001600160a01b0383166132805761327b8161012f8054600083815261013060205260408120829055600182018355919091527f232da9e50dad2971456a78fb5cd6ff6b75019984d6e918139ce990999420f9790155565b6132a3565b816001600160a01b0316836001600160a01b0316146132a3576132a383826135f0565b6001600160a01b0382166132ba57610b8d81613692565b826001600160a01b0316826001600160a01b031614610b8d57610b8d8282613747565b6132e681613068565b6133485760405162461bcd60e51b815260206004820152602d60248201527f455243313936373a206e657720696d706c656d656e746174696f6e206973206e60448201526c1bdd08184818dbdb9d1c9858dd609a1b6064820152608401610aec565b6000805160206148de83398151915280546001600160a01b0319166001600160a01b0392909216919091179055565b6133808361378d565b60008251118061338d5750805b15610b8d57611abf83836137cd565b6133a683836138bf565b6133b360008484846133cf565b610b8d5760405162461bcd60e51b8152600401610aec90614723565b60006133e3846001600160a01b0316613068565b156134d857604051630a85bd0160e11b81526001600160a01b0385169063150b7a029061341a9033908990889088906004016147ef565b602060405180830381600087803b15801561343457600080fd5b505af1925050508015613464575060408051601f3d908101601f191682019092526134619181019061482c565b60015b6134be573d808015613492576040519150601f19603f3d011682016040523d82523d6000602084013e613497565b606091505b5080516134b65760405162461bcd60e51b8152600401610aec90614723565b805181602001fd5b6001600160e01b031916630a85bd0160e11b1490506129b9565b506001949350505050565b606061016180546109cd9061435a565b6060816135175750506040805180820190915260018152600360fc1b602082015290565b8160005b8115613541578061352b816143f1565b915061353a9050600a8361485f565b915061351b565b6000816001600160401b0381111561355b5761355b613bf7565b6040519080825280601f01601f191660200182016040528015613585576020820181803683370190505b5090505b84156129b95761359a60018361470c565b91506135a7600a86614873565b6135b290603061454e565b60f81b8183815181106135c7576135c76143c5565b60200101906001600160f81b031916908160001a9053506135e9600a8661485f565b9450613589565b600060016135fd846114e8565b613607919061470c565b600083815261012e602052604090205490915080821461365d576001600160a01b038416600090815261012d60209081526040808320858452825280832054848452818420819055835261012e90915290208190555b50600091825261012e602090815260408084208490556001600160a01b03909416835261012d81528383209183525290812055565b61012f546000906136a59060019061470c565b6000838152610130602052604081205461012f80549394509092849081106136cf576136cf6143c5565b906000526020600020015490508061012f83815481106136f1576136f16143c5565b6000918252602080832090910192909255828152610130909152604080822084905585825281205561012f80548061372b5761372b614887565b6001900381819060005260206000200160009055905550505050565b6000613752836114e8565b6001600160a01b03909316600090815261012d60209081526040808320868452825280832085905593825261012e9052919091209190915550565b613796816132dd565b6040516001600160a01b038216907fbc7cd75a20ee27fd9adebab32041f755214dbc6bffa90cc0225b39da2e5c2d3b90600090a250565b60606137d883613068565b6138335760405162461bcd60e51b815260206004820152602660248201527f416464726573733a2064656c65676174652063616c6c20746f206e6f6e2d636f6044820152651b9d1c9858dd60d21b6064820152608401610aec565b600080846001600160a01b03168460405161384e91906146d3565b600060405180830381855af49150503d8060008114613889576040519150601f19603f3d011682016040523d82523d6000602084013e61388e565b606091505b50915091506138b6828260405180606001604052806027815260200161491e602791396139eb565b95945050505050565b6001600160a01b0382166139155760405162461bcd60e51b815260206004820181905260248201527f4552433732313a206d696e7420746f20746865207a65726f20616464726573736044820152606401610aec565b61391e81613206565b1561396a5760405162461bcd60e51b815260206004820152601c60248201527b115490cdcc8c4e881d1bdad95b88185b1c9958591e481b5a5b9d195960221b6044820152606401610aec565b61397660008383613223565b6001600160a01b038216600090815260fe6020526040812080546001929061399f90849061454e565b9091555050600081815260fd602052604080822080546001600160a01b0319166001600160a01b0386169081179091559051839290600080516020614945833981519152908290a45050565b606083156139fa57508161310a565b825115613a0a5782518084602001fd5b8160405162461bcd60e51b8152600401610aec9190613b71565b828054613a309061435a565b90600052602060002090601f016020900481019282613a525760008555613a98565b82601f10613a6b57805160ff1916838001178555613a98565b82800160010185558215613a98579182015b82811115613a98578251825591602001919060010190613a7d565b50613aa4929150613ad1565b5090565b604080516080810190915260008082526020820190815260200160008152600060209091015290565b5b80821115613aa45760008155600101613ad2565b6001600160e01b031981168114610fa857600080fd5b600060208284031215613b0e57600080fd5b813561310a81613ae6565b60005b83811015613b34578181015183820152602001613b1c565b83811115611abf5750506000910152565b60008151808452613b5d816020860160208601613b19565b601f01601f19169290920160200192915050565b60208152600061310a6020830184613b45565b600060208284031215613b9657600080fd5b5035919050565b6001600160a01b0391909116815260200190565b80356001600160a01b0381168114613bc857600080fd5b919050565b60008060408385031215613be057600080fd5b613be983613bb1565b946020939093013593505050565b634e487b7160e01b600052604160045260246000fd5b803560ff81168114613bc857600080fd5b600060c08284031215613c3057600080fd5b60405160c081016001600160401b0381118282101715613c5257613c52613bf7565b604052905080613c6183613bb1565b81526020830135602082015260408301356040820152613c8360608401613c0d565b60608201526080830135608082015260a083013560a08201525092915050565b600080600080848603610160811215613cbb57600080fd5b613cc486613bb1565b9450613cd260208701613bb1565b93506060603f1982011215613ce657600080fd5b50604051606081016001600160401b0381118282101715613d0957613d09613bf7565b8060405250613d1a60408701613c0d565b815260608601356020820152608086013560408201529150613d3f8660a08701613c1e565b905092959194509250565b600060208284031215613d5c57600080fd5b61310a82613bb1565b6020808252825182820181905260009190848201906040850190845b81811015613da65783516001600160a01b031683529284019291840191600101613d81565b50909695505050505050565b600080600060608486031215613dc757600080fd5b613dd084613bb1565b9250613dde60208501613bb1565b9150604084013590509250925092565b60008060408385031215613e0157600080fd5b82359150613e1160208401613bb1565b90509250929050565b60006001600160401b0380841115613e3457613e34613bf7565b604051601f8501601f19908116603f01168101908282118183101715613e5c57613e5c613bf7565b81604052809350858152868686011115613e7557600080fd5b858560208301376000602087830101525050509392505050565b600082601f830112613ea057600080fd5b61310a83833560208501613e1a565b60008060408385031215613ec257600080fd5b613ecb83613bb1565b915060208301356001600160401b03811115613ee657600080fd5b613ef285828601613e8f565b9150509250929050565b600060208284031215613f0e57600080fd5b81356001600160401b03811115613f2457600080fd5b8201601f81018413613f3557600080fd5b6129b984823560208401613e1a565b60008060408385031215613f5757600080fd5b82359150602083013560048110613f6d57600080fd5b809150509250929050565b60008060006101008486031215613f8e57600080fd5b613f9784613bb1565b9250613fa560208501613bb1565b9150613fb48560408601613c1e565b90509250925092565b60008083601f840112613fcf57600080fd5b5081356001600160401b03811115613fe657600080fd5b6020830191508360208260051b850101111561400157600080fd5b9250929050565b6000806000806040858703121561401e57600080fd5b84356001600160401b038082111561403557600080fd5b61404188838901613fbd565b9096509450602087013591508082111561405a57600080fd5b5061406787828801613fbd565b95989497509550505050565b634e487b7160e01b600052602160045260246000fd5b60048110610fa857634e487b7160e01b600052602160045260246000fd5b6001600160a01b0385168152608081016140c085614089565b8460208301526140cf84614089565b83604083015263ffffffff8316606083015295945050505050565b8015158114610fa857600080fd5b6000806040838503121561410b57600080fd5b61411483613bb1565b91506020830135613f6d816140ea565b60008060006040848603121561413957600080fd5b61414284613c0d565b925060208401356001600160401b0381111561415d57600080fd5b61416986828701613fbd565b9497909650939450505050565b6000806000806080858703121561418c57600080fd5b61419585613bb1565b93506141a360208601613bb1565b92506040850135915060608501356001600160401b038111156141c557600080fd5b6141d187828801613e8f565b91505092959194509250565b6001600160a01b03838116825282511660208083019190915282015160a082019061420781614089565b80604084015250604083015161421c81614089565b8060608401525063ffffffff60608401511660808301529392505050565b60008060006040848603121561424f57600080fd5b83356001600160401b0381111561426557600080fd5b61427186828701613fbd565b9094509250506020840135614285816140ea565b809150509250925092565b60008060008084860360c08112156142a757600080fd5b6142b086613bb1565b94506142be60208701613bb1565b9350604086013592506060605f19820112156142d957600080fd5b509295919450926060019150565b600080604083850312156142fa57600080fd5b61430383613bb1565b9150613e1160208401613bb1565b6000806000806080858703121561432757600080fd5b61433085613bb1565b935061433e60208601613bb1565b925061434c60408601613bb1565b9150613d3f60608601613bb1565b600181811c9082168061436e57607f821691505b6020821081141561438f57634e487b7160e01b600052602260045260246000fd5b50919050565b602080825260169082015275105c9adc99595b88135a5b995c8e881156141254915160521b604082015260600190565b634e487b7160e01b600052603260045260246000fd5b634e487b7160e01b600052601160045260246000fd5b6000600019821415614405576144056143db565b5060010190565b6020808252602e908201527f4552433732313a2063616c6c6572206973206e6f7420746f6b656e206f776e6560408201526d1c881b9bdc88185c1c1c9bdd995960921b606082015260800190565b6020808252602c908201526000805160206148be83398151915260408201526b19195b1959d85d1958d85b1b60a21b606082015260800190565b6020808252602c908201526000805160206148be83398151915260408201526b6163746976652070726f787960a01b606082015260800190565b6000602082840312156144e057600080fd5b5051919050565b602080825260189082015277115490cdcc8c4e881a5b9d985b1a59081d1bdad95b88125160421b604082015260600190565b6020808252818101527f41726b7265656e204d696e65723a204e6f74204d696e6572204d616e61676572604082015260600190565b60008219821115614561576145616143db565b500190565b8183526000602080850194508260005b858110156145a2576001600160a01b0361458f83613bb1565b1687529582019590820190600101614576565b509495945050505050565b6040815260006145c1604083018688614566565b82810360208401526145d4818587614566565b979650505050505050565b6020808252601d908201527f41726b7265656e204d696e65723a204d696e6572205265706561746564000000604082015260600190565b6020808252601a908201527920b935b932b2b71026b4b732b91d102bb937b7339026b4b732b960311b604082015260600190565b61190160f01b81526002810192909252602282015260420190565b60006020828403121561467757600080fd5b61310a82613c0d565b93845260ff9290921660208401526040830152606082015260800190565b6020808252818101527f41726b7265656e204d696e65723a20494e56414c49445f5349474e4154555245604082015260600190565b600082516146e5818460208701613b19565b9190910192915050565b60006020828403121561470157600080fd5b815161310a816140ea565b60008282101561471e5761471e6143db565b500390565b60208082526032908201527f4552433732313a207472616e7366657220746f206e6f6e20455243373231526560408201527131b2b4bb32b91034b6b83632b6b2b73a32b960711b606082015260800190565b60008351614787818460208801613b19565b83519083019061479b818360208801613b19565b01949350505050565b6020808252602b908201527f496e697469616c697a61626c653a20636f6e7472616374206973206e6f74206960408201526a6e697469616c697a696e6760a81b606082015260800190565b6001600160a01b038581168252841660208201526040810183905260806060820181905260009061482290830184613b45565b9695505050505050565b60006020828403121561483e57600080fd5b815161310a81613ae6565b634e487b7160e01b600052601260045260246000fd5b60008261486e5761486e614849565b500490565b60008261488257614882614849565b500690565b634e487b7160e01b600052603160045260246000fdfee397eaa556c649d10f65393ac1d09d5aa50d72547c850822c207516865e89e3246756e6374696f6e206d7573742062652063616c6c6564207468726f75676820360894a13ba1a3210667c828492db98dca3e2076cc3735a920a3ca505d382bbc0229ea194e580c57a8617a2fd5212f77341df380782aeed58564c0a931ddec03416464726573733a206c6f772d6c6576656c2064656c65676174652063616c6c206661696c6564ddf252ad1be2c89b69c2b068fc378daa952ba7f163c4a11628f55a4df523b3ef1819cfd8522c371aa6fb78703d4b280976da6c842708fa646960821654e808d25d99cb0804d72572983a89652076501eb3fda81a40a3fc8b0be5a6641da5eb9373f94559854a7e6267266a158d1576cbcaffd8ae930e61fb632f9ec576d2bb37a164736f6c6343000809000a",
  "linkReferences": {},
  "deployedLinkReferences": {}
}