{
  "_format": "hh-sol-artifact-1",
  "contractName": "ArkreenRECIssuance",
  "sourceName": "contracts/ArkreenRECIssuance.sol",
  "abi": [
    {
      "inputs": [],
      "stateMutability": "nonpayable",
      "type": "constructor"
    },
    {
      "anonymous": false,
      "inputs": [
        {
          "indexed": false,
          "internalType": "address",
          "name": "owner",
          "type": "address"
        },
        {
          "indexed": false,
          "internalType": "uint256",
          "name": "tokenId",
          "type": "uint256"
        }
      ],
      "name": "ESGBatchMinted",
      "type": "event"
    },
    {
      "anonymous": false,
      "inputs": [
        {
          "indexed": false,
          "internalType": "address",
          "name": "previousAdmin",
          "type": "address"
        },
        {
          "indexed": false,
          "internalType": "address",
          "name": "newAdmin",
          "type": "address"
        }
      ],
      "name": "AdminChanged",
      "type": "event"
    },
    {
      "anonymous": false,
      "inputs": [
        {
          "indexed": true,
          "internalType": "address",
          "name": "owner",
          "type": "address"
        },
        {
          "indexed": true,
          "internalType": "address",
          "name": "approved",
          "type": "address"
        },
        {
          "indexed": true,
          "internalType": "uint256",
          "name": "tokenId",
          "type": "uint256"
        }
      ],
      "name": "Approval",
      "type": "event"
    },
    {
      "anonymous": false,
      "inputs": [
        {
          "indexed": true,
          "internalType": "address",
          "name": "owner",
          "type": "address"
        },
        {
          "indexed": true,
          "internalType": "address",
          "name": "operator",
          "type": "address"
        },
        {
          "indexed": false,
          "internalType": "bool",
          "name": "approved",
          "type": "bool"
        }
      ],
      "name": "ApprovalForAll",
      "type": "event"
    },
    {
      "anonymous": false,
      "inputs": [
        {
          "indexed": true,
          "internalType": "address",
          "name": "beacon",
          "type": "address"
        }
      ],
      "name": "BeaconUpgraded",
      "type": "event"
    },
    {
      "anonymous": false,
      "inputs": [
        {
          "indexed": false,
          "internalType": "uint8",
          "name": "version",
          "type": "uint8"
        }
      ],
      "name": "Initialized",
      "type": "event"
    },
    {
      "anonymous": false,
      "inputs": [
        {
          "indexed": true,
          "internalType": "address",
          "name": "previousOwner",
          "type": "address"
        },
        {
          "indexed": true,
          "internalType": "address",
          "name": "newOwner",
          "type": "address"
        }
      ],
      "name": "OwnershipTransferred",
      "type": "event"
    },
    {
      "anonymous": false,
      "inputs": [
        {
          "indexed": false,
          "internalType": "address",
          "name": "owner",
          "type": "address"
        },
        {
          "indexed": false,
          "internalType": "uint256",
          "name": "tokenId",
          "type": "uint256"
        }
      ],
      "name": "RECCanceled",
      "type": "event"
    },
    {
      "anonymous": false,
      "inputs": [
        {
          "indexed": false,
          "internalType": "address",
          "name": "issuer",
          "type": "address"
        },
        {
          "indexed": false,
          "internalType": "uint256",
          "name": "tokenId",
          "type": "uint256"
        }
      ],
      "name": "RECCertified",
      "type": "event"
    },
    {
      "anonymous": false,
      "inputs": [
        {
          "indexed": false,
          "internalType": "address",
          "name": "owner",
          "type": "address"
        },
        {
          "indexed": false,
          "internalType": "uint256",
          "name": "tokenId",
          "type": "uint256"
        }
      ],
      "name": "RECDataUpdated",
      "type": "event"
    },
    {
      "anonymous": false,
      "inputs": [
        {
          "indexed": false,
          "internalType": "address",
          "name": "owner",
          "type": "address"
        },
        {
          "indexed": false,
          "internalType": "uint256",
          "name": "tokenId",
          "type": "uint256"
        },
        {
          "indexed": false,
          "internalType": "uint256",
          "name": "amountREC",
          "type": "uint256"
        }
      ],
      "name": "RECLiquidized",
      "type": "event"
    },
    {
      "anonymous": false,
      "inputs": [
        {
          "indexed": false,
          "internalType": "uint256",
          "name": "tokenId",
          "type": "uint256"
        }
      ],
      "name": "RECRejected",
      "type": "event"
    },
    {
      "anonymous": false,
      "inputs": [
        {
          "indexed": false,
          "internalType": "address",
          "name": "owner",
          "type": "address"
        },
        {
          "indexed": false,
          "internalType": "uint256",
          "name": "tokenId",
          "type": "uint256"
        }
      ],
      "name": "RECRequested",
      "type": "event"
    },
    {
      "anonymous": false,
      "inputs": [
        {
          "indexed": false,
          "internalType": "address",
          "name": "redeemEntity",
          "type": "address"
        },
        {
          "indexed": false,
          "internalType": "uint256",
          "name": "tokenId",
          "type": "uint256"
        },
        {
          "indexed": false,
          "internalType": "uint256",
          "name": "offsetActionId",
          "type": "uint256"
        }
      ],
      "name": "RedeemFinished",
      "type": "event"
    },
    {
      "anonymous": false,
      "inputs": [
        {
          "indexed": true,
          "internalType": "address",
          "name": "from",
          "type": "address"
        },
        {
          "indexed": true,
          "internalType": "address",
          "name": "to",
          "type": "address"
        },
        {
          "indexed": true,
          "internalType": "uint256",
          "name": "tokenId",
          "type": "uint256"
        }
      ],
      "name": "Transfer",
      "type": "event"
    },
    {
      "anonymous": false,
      "inputs": [
        {
          "indexed": false,
          "internalType": "address",
          "name": "owner",
          "type": "address"
        },
        {
          "indexed": false,
          "internalType": "uint256",
          "name": "tokenId",
          "type": "uint256"
        }
      ],
      "name": "ESGBatchDataUpdated",
      "type": "event"
    },
    {
      "anonymous": false,
      "inputs": [
        {
          "indexed": true,
          "internalType": "address",
          "name": "implementation",
          "type": "address"
        }
      ],
      "name": "Upgraded",
      "type": "event"
    },
    {
      "stateMutability": "payable",
      "type": "fallback"
    },
    {
      "inputs": [
        {
          "internalType": "address",
          "name": "",
          "type": "address"
        }
      ],
      "name": "AllMVPEntity",
      "outputs": [
        {
          "internalType": "bool",
          "name": "",
          "type": "bool"
        }
      ],
      "stateMutability": "view",
      "type": "function"
    },
    {
      "inputs": [],
      "name": "NAME",
      "outputs": [
        {
          "internalType": "string",
          "name": "",
          "type": "string"
        }
      ],
      "stateMutability": "view",
      "type": "function"
    },
    {
      "inputs": [],
      "name": "PERMIT_TYPEHASH",
      "outputs": [
        {
          "internalType": "bytes32",
          "name": "",
          "type": "bytes32"
        }
      ],
      "stateMutability": "view",
      "type": "function"
    },
    {
      "inputs": [],
      "name": "SYMBOL",
      "outputs": [
        {
          "internalType": "string",
          "name": "",
          "type": "string"
        }
      ],
      "stateMutability": "view",
      "type": "function"
    },
    {
      "inputs": [
        {
          "internalType": "uint256",
          "name": "",
          "type": "uint256"
        }
      ],
      "name": "allPayInfo",
      "outputs": [
        {
          "internalType": "address",
          "name": "token",
          "type": "address"
        },
        {
          "internalType": "uint256",
          "name": "value",
          "type": "uint256"
        }
      ],
      "stateMutability": "view",
      "type": "function"
    },
    {
      "inputs": [
        {
          "internalType": "address",
          "name": "",
          "type": "address"
        }
      ],
      "name": "allRECByIssuer",
      "outputs": [
        {
          "internalType": "uint256",
          "name": "",
          "type": "uint256"
        }
      ],
      "stateMutability": "view",
      "type": "function"
    },
    {
      "inputs": [],
      "name": "allRECIssued",
      "outputs": [
        {
          "internalType": "uint256",
          "name": "",
          "type": "uint256"
        }
      ],
      "stateMutability": "view",
      "type": "function"
    },
    {
      "inputs": [],
      "name": "allRECLiquidized",
      "outputs": [
        {
          "internalType": "uint256",
          "name": "",
          "type": "uint256"
        }
      ],
      "stateMutability": "view",
      "type": "function"
    },
    {
      "inputs": [],
      "name": "allRECRedeemed",
      "outputs": [
        {
          "internalType": "uint256",
          "name": "",
          "type": "uint256"
        }
      ],
      "stateMutability": "view",
      "type": "function"
    },
    {
      "inputs": [
        {
          "internalType": "address",
          "name": "to",
          "type": "address"
        },
        {
          "internalType": "uint256",
          "name": "tokenId",
          "type": "uint256"
        }
      ],
      "name": "approve",
      "outputs": [],
      "stateMutability": "nonpayable",
      "type": "function"
    },
    {
      "inputs": [],
      "name": "arkreenRegistry",
      "outputs": [
        {
          "internalType": "address",
          "name": "",
          "type": "address"
        }
      ],
      "stateMutability": "view",
      "type": "function"
    },
    {
      "inputs": [
        {
          "internalType": "address",
          "name": "owner",
          "type": "address"
        }
      ],
      "name": "balanceOf",
      "outputs": [
        {
          "internalType": "uint256",
          "name": "",
          "type": "uint256"
        }
      ],
      "stateMutability": "view",
      "type": "function"
    },
    {
      "inputs": [],
      "name": "baseURI",
      "outputs": [
        {
          "internalType": "string",
          "name": "",
          "type": "string"
        }
      ],
      "stateMutability": "view",
      "type": "function"
    },
    {
      "inputs": [
        {
          "internalType": "uint256",
          "name": "tokenID",
          "type": "uint256"
        },
        {
          "internalType": "string",
          "name": "serialNumber",
          "type": "string"
        }
      ],
      "name": "certifyRECRequest",
      "outputs": [],
      "stateMutability": "nonpayable",
      "type": "function"
    },
    {
      "inputs": [
        {
          "internalType": "uint256",
          "name": "tokenId",
          "type": "uint256"
        }
      ],
      "name": "getApproved",
      "outputs": [
        {
          "internalType": "address",
          "name": "",
          "type": "address"
        }
      ],
      "stateMutability": "view",
      "type": "function"
    },
    {
      "inputs": [
        {
          "internalType": "uint256",
          "name": "tokenId",
          "type": "uint256"
        }
      ],
      "name": "getRECData",
      "outputs": [
        {
          "components": [
            {
              "internalType": "address",
              "name": "issuer",
              "type": "address"
            },
            {
              "internalType": "string",
              "name": "serialNumber",
              "type": "string"
            },
            {
              "internalType": "address",
              "name": "minter",
              "type": "address"
            },
            {
              "internalType": "uint32",
              "name": "startTime",
              "type": "uint32"
            },
            {
              "internalType": "uint32",
              "name": "endTime",
              "type": "uint32"
            },
            {
              "internalType": "uint128",
              "name": "amountREC",
              "type": "uint128"
            },
            {
              "internalType": "uint8",
              "name": "status",
              "type": "uint8"
            },
            {
              "internalType": "string",
              "name": "cID",
              "type": "string"
            },
            {
              "internalType": "string",
              "name": "region",
              "type": "string"
            },
            {
              "internalType": "string",
              "name": "url",
              "type": "string"
            },
            {
              "internalType": "string",
              "name": "memo",
              "type": "string"
            },
            {
              "internalType": "uint16",
              "name": "idAsset",
              "type": "uint16"
            }
          ],
          "internalType": "struct RECData",
          "name": "",
          "type": "tuple"
        }
      ],
      "stateMutability": "view",
      "type": "function"
    },
    {
      "inputs": [
        {
          "internalType": "uint256",
          "name": "tokenId",
          "type": "uint256"
        }
      ],
      "name": "getRECDataCore",
      "outputs": [
        {
          "internalType": "address",
          "name": "issuer",
          "type": "address"
        },
        {
          "internalType": "uint128",
          "name": "amountREC",
          "type": "uint128"
        },
        {
          "internalType": "uint8",
          "name": "status",
          "type": "uint8"
        },
        {
          "internalType": "uint16",
          "name": "idAsset",
          "type": "uint16"
        }
      ],
      "stateMutability": "view",
      "type": "function"
    },
    {
      "inputs": [
        {
          "internalType": "address",
          "name": "_tokenAKRE",
          "type": "address"
        },
        {
          "internalType": "address",
          "name": "arkRegistry",
          "type": "address"
        }
      ],
      "name": "initialize",
      "outputs": [],
      "stateMutability": "nonpayable",
      "type": "function"
    },
    {
      "inputs": [
        {
          "internalType": "address",
          "name": "owner",
          "type": "address"
        },
        {
          "internalType": "address",
          "name": "operator",
          "type": "address"
        }
      ],
      "name": "isApprovedForAll",
      "outputs": [
        {
          "internalType": "bool",
          "name": "",
          "type": "bool"
        }
      ],
      "stateMutability": "view",
      "type": "function"
    },
    {
      "inputs": [
        {
          "internalType": "uint256",
          "name": "tokenId",
          "type": "uint256"
        }
      ],
      "name": "liquidizeREC",
      "outputs": [],
      "stateMutability": "nonpayable",
      "type": "function"
    },
    {
      "inputs": [
        {
          "components": [
            {
              "internalType": "address",
              "name": "issuer",
              "type": "address"
            },
            {
              "internalType": "uint32",
              "name": "startTime",
              "type": "uint32"
            },
            {
              "internalType": "uint32",
              "name": "endTime",
              "type": "uint32"
            },
            {
              "internalType": "uint128",
              "name": "amountREC",
              "type": "uint128"
            },
            {
              "internalType": "string",
              "name": "cID",
              "type": "string"
            },
            {
              "internalType": "string",
              "name": "region",
              "type": "string"
            },
            {
              "internalType": "string",
              "name": "url",
              "type": "string"
            },
            {
              "internalType": "string",
              "name": "memo",
              "type": "string"
            }
          ],
          "internalType": "struct RECRequest",
          "name": "recRequest",
          "type": "tuple"
        },
        {
          "components": [
            {
              "internalType": "address",
              "name": "token",
              "type": "address"
            },
            {
              "internalType": "uint256",
              "name": "value",
              "type": "uint256"
            },
            {
              "internalType": "uint256",
              "name": "deadline",
              "type": "uint256"
            },
            {
              "internalType": "uint8",
              "name": "v",
              "type": "uint8"
            },
            {
              "internalType": "bytes32",
              "name": "r",
              "type": "bytes32"
            },
            {
              "internalType": "bytes32",
              "name": "s",
              "type": "bytes32"
            }
          ],
          "internalType": "struct Signature",
          "name": "permitToPay",
          "type": "tuple"
        }
      ],
      "name": "mintRECRequest",
      "outputs": [
        {
          "internalType": "uint256",
          "name": "tokenId",
          "type": "uint256"
        }
      ],
      "stateMutability": "nonpayable",
      "type": "function"
    },
    {
      "inputs": [],
      "name": "name",
      "outputs": [
        {
          "internalType": "string",
          "name": "",
          "type": "string"
        }
      ],
      "stateMutability": "view",
      "type": "function"
    },
    {
      "inputs": [],
      "name": "owner",
      "outputs": [
        {
          "internalType": "address",
          "name": "",
          "type": "address"
        }
      ],
      "stateMutability": "view",
      "type": "function"
    },
    {
      "inputs": [
        {
          "internalType": "uint256",
          "name": "tokenId",
          "type": "uint256"
        }
      ],
      "name": "ownerOf",
      "outputs": [
        {
          "internalType": "address",
          "name": "",
          "type": "address"
        }
      ],
      "stateMutability": "view",
      "type": "function"
    },
    {
      "inputs": [
        {
          "internalType": "address",
          "name": "",
          "type": "address"
        },
        {
          "internalType": "address",
          "name": "",
          "type": "address"
        }
      ],
      "name": "paymentByIssuer",
      "outputs": [
        {
          "internalType": "uint256",
          "name": "",
          "type": "uint256"
        }
      ],
      "stateMutability": "view",
      "type": "function"
    },
    {
      "inputs": [
        {
          "internalType": "address",
          "name": "",
          "type": "address"
        }
      ],
      "name": "paymentTokenPrice",
      "outputs": [
        {
          "internalType": "uint256",
          "name": "",
          "type": "uint256"
        }
      ],
      "stateMutability": "view",
      "type": "function"
    },
    {
      "inputs": [
        {
          "internalType": "uint256",
          "name": "",
          "type": "uint256"
        }
      ],
      "name": "paymentTokens",
      "outputs": [
        {
          "internalType": "address",
          "name": "",
          "type": "address"
        }
      ],
      "stateMutability": "view",
      "type": "function"
    },
    {
      "inputs": [],
      "name": "postUpdate",
      "outputs": [],
      "stateMutability": "nonpayable",
      "type": "function"
    },
    {
      "inputs": [],
      "name": "proxiableUUID",
      "outputs": [
        {
          "internalType": "bytes32",
          "name": "",
          "type": "bytes32"
        }
      ],
      "stateMutability": "view",
      "type": "function"
    },
    {
      "inputs": [
        {
          "internalType": "uint256",
          "name": "tokenId",
          "type": "uint256"
        }
      ],
      "name": "redeem",
      "outputs": [
        {
          "internalType": "uint256",
          "name": "offsetActionId",
          "type": "uint256"
        }
      ],
      "stateMutability": "nonpayable",
      "type": "function"
    },
    {
      "inputs": [
        {
          "internalType": "uint256",
          "name": "tokenId",
          "type": "uint256"
        },
        {
          "internalType": "address",
          "name": "beneficiary",
          "type": "address"
        },
        {
          "internalType": "string",
          "name": "offsetEntityID",
          "type": "string"
        },
        {
          "internalType": "string",
          "name": "beneficiaryID",
          "type": "string"
        },
        {
          "internalType": "string",
          "name": "offsetMessage",
          "type": "string"
        }
      ],
      "name": "redeemAndMintCertificate",
      "outputs": [],
      "stateMutability": "nonpayable",
      "type": "function"
    },
    {
      "inputs": [
        {
          "internalType": "address",
          "name": "account",
          "type": "address"
        },
        {
          "internalType": "uint256",
          "name": "tokenId",
          "type": "uint256"
        }
      ],
      "name": "redeemFrom",
      "outputs": [
        {
          "internalType": "uint256",
          "name": "offsetActionId",
          "type": "uint256"
        }
      ],
      "stateMutability": "nonpayable",
      "type": "function"
    },
    {
      "inputs": [
        {
          "internalType": "uint256",
          "name": "tokenId",
          "type": "uint256"
        }
      ],
      "name": "rejectRECRequest",
      "outputs": [],
      "stateMutability": "nonpayable",
      "type": "function"
    },
    {
      "inputs": [],
      "name": "renounceOwnership",
      "outputs": [],
      "stateMutability": "nonpayable",
      "type": "function"
    },
    {
      "inputs": [
        {
          "internalType": "uint256",
          "name": "tokenId",
          "type": "uint256"
        }
      ],
      "name": "restore",
      "outputs": [
        {
          "internalType": "bool",
          "name": "",
          "type": "bool"
        }
      ],
      "stateMutability": "nonpayable",
      "type": "function"
    },
    {
      "inputs": [
        {
          "internalType": "address",
          "name": "from",
          "type": "address"
        },
        {
          "internalType": "address",
          "name": "to",
          "type": "address"
        },
        {
          "internalType": "uint256",
          "name": "tokenId",
          "type": "uint256"
        }
      ],
      "name": "safeTransferFrom",
      "outputs": [],
      "stateMutability": "nonpayable",
      "type": "function"
    },
    {
      "inputs": [
        {
          "internalType": "address",
          "name": "from",
          "type": "address"
        },
        {
          "internalType": "address",
          "name": "to",
          "type": "address"
        },
        {
          "internalType": "uint256",
          "name": "tokenId",
          "type": "uint256"
        },
        {
          "internalType": "bytes",
          "name": "data",
          "type": "bytes"
        }
      ],
      "name": "safeTransferFrom",
      "outputs": [],
      "stateMutability": "nonpayable",
      "type": "function"
    },
    {
      "inputs": [
        {
          "internalType": "address",
          "name": "operator",
          "type": "address"
        },
        {
          "internalType": "bool",
          "name": "approved",
          "type": "bool"
        }
      ],
      "name": "setApprovalForAll",
      "outputs": [],
      "stateMutability": "nonpayable",
      "type": "function"
    },
    {
      "inputs": [
        {
          "internalType": "string",
          "name": "newBaseURI",
          "type": "string"
        }
      ],
      "name": "setBaseURI",
      "outputs": [],
      "stateMutability": "nonpayable",
      "type": "function"
    },
    {
      "inputs": [
        {
          "internalType": "address",
          "name": "addrESGExt",
          "type": "address"
        }
      ],
      "name": "setESGExtAddress",
      "outputs": [],
      "stateMutability": "nonpayable",
      "type": "function"
    },
    {
      "inputs": [
        {
          "internalType": "address",
          "name": "_tokenAKRE",
          "type": "address"
        }
      ],
      "name": "setTokenAKRE",
      "outputs": [],
      "stateMutability": "nonpayable",
      "type": "function"
    },
    {
      "inputs": [
        {
          "internalType": "bytes4",
          "name": "interfaceId",
          "type": "bytes4"
        }
      ],
      "name": "supportsInterface",
      "outputs": [
        {
          "internalType": "bool",
          "name": "",
          "type": "bool"
        }
      ],
      "stateMutability": "view",
      "type": "function"
    },
    {
      "inputs": [],
      "name": "symbol",
      "outputs": [
        {
          "internalType": "string",
          "name": "",
          "type": "string"
        }
      ],
      "stateMutability": "view",
      "type": "function"
    },
    {
      "inputs": [],
      "name": "tokenAKRE",
      "outputs": [
        {
          "internalType": "address",
          "name": "",
          "type": "address"
        }
      ],
      "stateMutability": "view",
      "type": "function"
    },
    {
      "inputs": [
        {
          "internalType": "uint256",
          "name": "index",
          "type": "uint256"
        }
      ],
      "name": "tokenByIndex",
      "outputs": [
        {
          "internalType": "uint256",
          "name": "",
          "type": "uint256"
        }
      ],
      "stateMutability": "view",
      "type": "function"
    },
    {
      "inputs": [
        {
          "internalType": "address",
          "name": "owner",
          "type": "address"
        },
        {
          "internalType": "uint256",
          "name": "index",
          "type": "uint256"
        }
      ],
      "name": "tokenOfOwnerByIndex",
      "outputs": [
        {
          "internalType": "uint256",
          "name": "",
          "type": "uint256"
        }
      ],
      "stateMutability": "view",
      "type": "function"
    },
    {
      "inputs": [
        {
          "internalType": "uint256",
          "name": "tokenId",
          "type": "uint256"
        }
      ],
      "name": "tokenURI",
      "outputs": [
        {
          "internalType": "string",
          "name": "",
          "type": "string"
        }
      ],
      "stateMutability": "view",
      "type": "function"
    },
    {
      "inputs": [],
      "name": "totalSupply",
      "outputs": [
        {
          "internalType": "uint256",
          "name": "",
          "type": "uint256"
        }
      ],
      "stateMutability": "view",
      "type": "function"
    },
    {
      "inputs": [
        {
          "internalType": "address",
          "name": "from",
          "type": "address"
        },
        {
          "internalType": "address",
          "name": "to",
          "type": "address"
        },
        {
          "internalType": "uint256",
          "name": "tokenId",
          "type": "uint256"
        }
      ],
      "name": "transferFrom",
      "outputs": [],
      "stateMutability": "nonpayable",
      "type": "function"
    },
    {
      "inputs": [
        {
          "internalType": "address",
          "name": "newOwner",
          "type": "address"
        }
      ],
      "name": "transferOwnership",
      "outputs": [],
      "stateMutability": "nonpayable",
      "type": "function"
    },
    {
      "inputs": [
        {
          "internalType": "address",
          "name": "token",
          "type": "address"
        },
        {
          "internalType": "uint256",
          "name": "price",
          "type": "uint256"
        }
      ],
      "name": "updateARECMintPrice",
      "outputs": [],
      "stateMutability": "nonpayable",
      "type": "function"
    },
    {
      "inputs": [
        {
          "internalType": "uint256",
          "name": "tokenID",
          "type": "uint256"
        },
        {
          "internalType": "address",
          "name": "issuer",
          "type": "address"
        },
        {
          "internalType": "string",
          "name": "region",
          "type": "string"
        },
        {
          "internalType": "string",
          "name": "url",
          "type": "string"
        },
        {
          "internalType": "string",
          "name": "memo",
          "type": "string"
        }
      ],
      "name": "updateRECData",
      "outputs": [],
      "stateMutability": "nonpayable",
      "type": "function"
    },
    {
      "inputs": [
        {
          "internalType": "address",
          "name": "newImplementation",
          "type": "address"
        }
      ],
      "name": "upgradeTo",
      "outputs": [],
      "stateMutability": "nonpayable",
      "type": "function"
    },
    {
      "inputs": [
        {
          "internalType": "address",
          "name": "newImplementation",
          "type": "address"
        },
        {
          "internalType": "bytes",
          "name": "data",
          "type": "bytes"
        }
      ],
      "name": "upgradeToAndCall",
      "outputs": [],
      "stateMutability": "payable",
      "type": "function"
    },
    {
      "inputs": [
        {
          "internalType": "address",
          "name": "token",
          "type": "address"
        },
        {
          "internalType": "address",
          "name": "receiver",
          "type": "address"
        }
      ],
      "name": "withdraw",
      "outputs": [],
      "stateMutability": "nonpayable",
      "type": "function"
    },
    {
      "stateMutability": "payable",
      "type": "receive"
    }
  ],
  "bytecode": "0x60a0604052306080523480156200001557600080fd5b506200002062000026565b620000e8565b600054610100900460ff1615620000935760405162461bcd60e51b815260206004820152602760248201527f496e697469616c697a61626c653a20636f6e747261637420697320696e697469604482015266616c697a696e6760c81b606482015260840160405180910390fd5b60005460ff9081161015620000e6576000805460ff191660ff9081179091556040519081527f7f26b83ff96e1f2b6a682f133852f6798a09c465da95921460cefb38474024989060200160405180910390a15b565b608051615fdd6200012e600039600081816116e601528181611726015281816119b7015281816119f701528181611e8b0152818161218301526121c30152615fdd6000f3fe6080604052600436106102745760003560e01c806301ffc9a7146102e657806306fdde031461031b578063081812fc1461033d578063095ea7b31461036a57806311f65b281461038c57806318160ddd146103ac5780631ed072be146103cc57806323b872dd146103ec5780632bb11bea1461040c5780632f745c591461042c57806330adf81f1461044c5780633659cfe61461048057806342842e0e146104a0578063485cc955146104c05780634c39917b146104e05780634d6ecd6a1461052f5780634f1ef286146105685780634f6ccce71461057b578063505eeeeb1461059b57806352d1902d146105c857806355f804b3146105dd5780635a6bff20146105fd5780635de5773a146106145780636352211e146106345780636c0360eb1461065457806370a0823114610669578063715018a6146106895780637238fca81461069e57806380aafd77146106b35780638967bda3146106d35780638da5cb5b146107715780638fb60a621461078657806395d89b41146107a75780639bea62ad146107bc578063a22cb465146107dc578063a3f4df7e146107fc578063ac0832421461083e578063b6065ae81461085f578063b88d4fde1461087f578063c361d0de1461089f578063c62330dd146108bf578063c87b56dd146108d6578063d28693e7146108f6578063d5772a9a14610916578063db006a7514610944578063de66084114610964578063e100724714610984578063e40ba994146109b5578063e4b48a65146109cc578063e985e9c5146109fa578063ee52beb714610a1a578063f2fde38b14610a3a578063f76f8d7814610a5a578063f8033e7514610a8a578063f940e38514610aaa576102b6565b366102b65760405162461bcd60e51b815260206004820152600d60248201526c57726f6e672063616c6c696e6760981b60448201526064015b60405180910390fd5b60006102c0610aca565b90503660008037600080366000845af43d6000803e8080156102e1573d6000f35b3d6000fd5b3480156102f257600080fd5b50610306610301366004615129565b610aeb565b60405190151581526020015b60405180910390f35b34801561032757600080fd5b50610330610b16565b604051610312919061519e565b34801561034957600080fd5b5061035d6103583660046151b1565b610ba8565b60405161031291906151d7565b34801561037657600080fd5b5061038a610385366004615200565b610bcf565b005b34801561039857600080fd5b5061038a6103a73660046152ce565b610ce5565b3480156103b857600080fd5b5061012f545b604051908152602001610312565b3480156103d857600080fd5b5061038a6103e73660046151b1565b610f3f565b3480156103f857600080fd5b5061038a610407366004615372565b611205565b34801561041857600080fd5b5061038a6104273660046153b3565b611236565b34801561043857600080fd5b506103be610447366004615200565b611644565b34801561045857600080fd5b506103be7feb053433b86341259c91de8e051ff855e4aef3cabe1825ee9f5d9a80315fb70081565b34801561048c57600080fd5b5061038a61049b3660046153f9565b6116db565b3480156104ac57600080fd5b5061038a6104bb366004615372565b6117a4565b3480156104cc57600080fd5b5061038a6104db366004615416565b6117bf565b3480156104ec57600080fd5b506105216104fb3660046151b1565b61016360205260009081526040902080546001909101546001600160a01b039091169082565b60405161031292919061544f565b34801561053b57600080fd5b506103be61054a366004615416565b61016860209081526000928352604080842090915290825290205481565b61038a610576366004615468565b6119ac565b34801561058757600080fd5b506103be6105963660046151b1565b611a66565b3480156105a757600080fd5b506105bb6105b63660046151b1565b611afb565b60405161031291906154a1565b3480156105d457600080fd5b506103be611e7e565b3480156105e957600080fd5b5061038a6105f83660046155cc565b611f2c565b34801561060957600080fd5b506103be6101645481565b34801561062057600080fd5b506103be61062f366004615200565b611f48565b34801561064057600080fd5b5061035d61064f3660046151b1565b61201a565b34801561066057600080fd5b5061033061204f565b34801561067557600080fd5b506103be6106843660046153f9565b6120de565b34801561069557600080fd5b5061038a612164565b3480156106aa57600080fd5b5061038a612178565b3480156106bf57600080fd5b5061038a6106ce3660046153f9565b612221565b3480156106df57600080fd5b506107336106ee3660046151b1565b600090815261016260205260409020805460038201546008909201546001600160a01b03909116926001600160801b03831692600160801b900460ff169161ffff1690565b604080516001600160a01b0390951685526001600160801b03909316602085015260ff9091169183019190915261ffff166060820152608001610312565b34801561077d57600080fd5b5061035d612291565b34801561079257600080fd5b506101605461035d906001600160a01b031681565b3480156107b357600080fd5b506103306122a0565b3480156107c857600080fd5b506103066107d73660046151b1565b6122af565b3480156107e857600080fd5b5061038a6107f736600461560e565b6124b8565b34801561080857600080fd5b506103306040518060400160405280601681526020017541726b7265656e20524520436572746966696361746560501b81525081565b34801561084a57600080fd5b5061015f5461035d906001600160a01b031681565b34801561086b57600080fd5b5061038a61087a3660046151b1565b6124c3565b34801561088b57600080fd5b5061038a61089a36600461563c565b61278d565b3480156108ab57600080fd5b5061038a6108ba3660046156ef565b6127c5565b3480156108cb57600080fd5b506103be6101665481565b3480156108e257600080fd5b506103306108f13660046151b1565b6129f6565b34801561090257600080fd5b5061038a6109113660046153f9565b612b82565b34801561092257600080fd5b506103be6109313660046153f9565b6101676020526000908152604090205481565b34801561095057600080fd5b506103be61095f3660046151b1565b612bbc565b34801561097057600080fd5b5061035d61097f3660046151b1565b612c61565b34801561099057600080fd5b5061030661099f3660046153f9565b61016b6020526000908152604090205460ff1681565b3480156109c157600080fd5b506103be6101655481565b3480156109d857600080fd5b506103be6109e73660046153f9565b6101696020526000908152604090205481565b348015610a0657600080fd5b50610306610a15366004615416565b612c8c565b348015610a2657600080fd5b5061038a610a35366004615200565b612cbb565b348015610a4657600080fd5b5061038a610a553660046153f9565b612f17565b348015610a6657600080fd5b50610330604051806040016040528060048152602001634152454360e01b81525081565b348015610a9657600080fd5b506103be610aa53660046157a4565b612f8d565b348015610ab657600080fd5b5061038a610ac5366004615416565b613869565b6000600080516020615f2a8339815191525b546001600160a01b0316919050565b60006001600160e01b0319821663780e9d6360e01b1480610b105750610b10826139b2565b92915050565b606060fb8054610b2590615803565b80601f0160208091040260200160405190810160405280929190818152602001828054610b5190615803565b8015610b9e5780601f10610b7357610100808354040283529160200191610b9e565b820191906000526020600020905b815481529060010190602001808311610b8157829003601f168201915b5050505050905090565b6000610bb382613a02565b50600090815260ff60205260409020546001600160a01b031690565b6000610bda8261201a565b9050806001600160a01b0316836001600160a01b03161415610c485760405162461bcd60e51b815260206004820152602160248201527f4552433732313a20617070726f76616c20746f2063757272656e74206f776e656044820152603960f91b60648201526084016102ad565b336001600160a01b0382161480610c645750610c648133612c8c565b610cd65760405162461bcd60e51b815260206004820152603e60248201527f4552433732313a20617070726f76652063616c6c6572206973206e6f7420746f60448201527f6b656e206f776e6572206e6f7220617070726f76656420666f7220616c6c000060648201526084016102ad565b610ce08383613a27565b505050565b61016060009054906101000a90046001600160a01b03166001600160a01b0316635c975abb6040518163ffffffff1660e01b815260040160206040518083038186803b158015610d3457600080fd5b505afa158015610d48573d6000803e3d6000fd5b505050506040513d601f19601f82011682018060405250810190610d6c919061583e565b15610d895760405162461bcd60e51b81526004016102ad9061585b565b33610d938661201a565b6001600160a01b031614610db95760405162461bcd60e51b81526004016102ad90615881565b600085815261016260205260409020600381015460ff600160801b90910416600114610df75760405162461bcd60e51b81526004016102ad906158aa565b6101605460405163b683664760e01b81526001600160a01b039091169063b683664790610e289088906004016151d7565b60206040518083038186803b158015610e4057600080fd5b505afa158015610e54573d6000803e3d6000fd5b505050506040513d601f19601f82011682018060405250810190610e78919061583e565b610e945760405162461bcd60e51b81526004016102ad906158d6565b80546001600160a01b0319166001600160a01b0386161781558351610ec29060058301906020870190614feb565b508251610ed89060068301906020860190614feb565b508151610eee9060078301906020850190614feb565b5060038101805460ff60801b191690557f06a702c8b6fdee8fee6d96ea3d5fbbff06d3f371e34c5000e8a2ebee09b335053387604051610f2f92919061544f565b60405180910390a1505050505050565b61016060009054906101000a90046001600160a01b03166001600160a01b0316635c975abb6040518163ffffffff1660e01b815260040160206040518083038186803b158015610f8e57600080fd5b505afa158015610fa2573d6000803e3d6000fd5b505050506040513d601f19601f82011682018060405250810190610fc6919061583e565b15610fe35760405162461bcd60e51b81526004016102ad9061585b565b600081815261016260205260409020600881015433919061ffff16806110d1576101605460405163b683664760e01b81526001600160a01b039091169063b6836647906110349086906004016151d7565b60206040518083038186803b15801561104c57600080fd5b505afa158015611060573d6000803e3d6000fd5b505050506040513d601f19601f82011682018060405250810190611084919061583e565b6110a05760405162461bcd60e51b81526004016102ad90615902565b81546001600160a01b038481169116146110cc5760405162461bcd60e51b81526004016102ad906158d6565b61118b565b61016054604051630f637d9560e41b815261ffff831660048201526000916001600160a01b03169063f637d9509060240160a06040518083038186803b15801561111a57600080fd5b505afa15801561112e573d6000803e3d6000fd5b505050506040513d601f19601f820116820180604052508101906111529190615941565b505050509050806001600160a01b0316846001600160a01b0316146111895760405162461bcd60e51b81526004016102ad906158d6565b505b6003820154600160801b900460ff16156111b75760405162461bcd60e51b81526004016102ad906158aa565b60038201805460ff60801b1916600160801b1790556040518481527f1a754892e6d20616b194dfbbe1c4a89873464b1723f947e9bf77fb931445ea959060200160405180910390a150505050565b61120f3382613a95565b61122b5760405162461bcd60e51b81526004016102ad906159bd565b610ce0838383613af3565b61016060009054906101000a90046001600160a01b03166001600160a01b0316635c975abb6040518163ffffffff1660e01b815260040160206040518083038186803b15801561128557600080fd5b505afa158015611299573d6000803e3d6000fd5b505050506040513d601f19601f820116820180604052508101906112bd919061583e565b156112da5760405162461bcd60e51b81526004016102ad9061585b565b600082815261016260205260409020600881015433919061ffff16806113c8576101605460405163b683664760e01b81526001600160a01b039091169063b68366479061132b9086906004016151d7565b60206040518083038186803b15801561134357600080fd5b505afa158015611357573d6000803e3d6000fd5b505050506040513d601f19601f8201168201806040525081019061137b919061583e565b6113975760405162461bcd60e51b81526004016102ad90615902565b81546001600160a01b038481169116146113c35760405162461bcd60e51b81526004016102ad906158d6565b611482565b61016054604051630f637d9560e41b815261ffff831660048201526000916001600160a01b03169063f637d9509060240160a06040518083038186803b15801561141157600080fd5b505afa158015611425573d6000803e3d6000fd5b505050506040513d601f19601f820116820180604052508101906114499190615941565b505050509050806001600160a01b0316846001600160a01b0316146114805760405162461bcd60e51b81526004016102ad906158d6565b505b6003820154600160801b900460ff16156114ae5760405162461bcd60e51b81526004016102ad906158aa565b60148260040180546114bf90615803565b9050116115005760405162461bcd60e51b815260206004820152600f60248201526e10549150ce8815dc9bdb99c810d251608a1b60448201526064016102ad565b83516115159060018401906020870190614feb565b5060038201805460ff60801b198116600360801b179091556000868152610163602090815260408083208054600191909101546001600160a01b0389811686526101679094529184208054939091169491936001600160801b0390921692839290611581908490615a21565b9250508190555080610164600082825461159b9190615a21565b90915550506001600160a01b03808716600090815261016860209081526040808320938716835292905290812080548492906115d8908490615a21565b90915550506000888152610163602052604080822080546001600160a01b031916815560010191909155517f46c4a9234ee016255181d4e9b3effcd1bfc86afdb4c78fddef4954c2c7389e4e906116329088908b9061544f565b60405180910390a15050505050505050565b600061164f836120de565b82106116b15760405162461bcd60e51b815260206004820152602b60248201527f455243373231456e756d657261626c653a206f776e657220696e646578206f7560448201526a74206f6620626f756e647360a81b60648201526084016102ad565b506001600160a01b0391909116600090815261012d60209081526040808320938352929052205490565b306001600160a01b037f00000000000000000000000000000000000000000000000000000000000000001614156117245760405162461bcd60e51b81526004016102ad90615a39565b7f00000000000000000000000000000000000000000000000000000000000000006001600160a01b0316611756613c88565b6001600160a01b03161461177c5760405162461bcd60e51b81526004016102ad90615a73565b61178581613c9e565b604080516000808252602082019092526117a191839190613ca6565b50565b610ce08383836040518060200160405280600081525061278d565b600054610100900460ff16158080156117df5750600054600160ff909116105b8061180057506117ee30613e20565b158015611800575060005460ff166001145b6118635760405162461bcd60e51b815260206004820152602e60248201527f496e697469616c697a61626c653a20636f6e747261637420697320616c72656160448201526d191e481a5b9a5d1a585b1a5e995960921b60648201526084016102ad565b6000805460ff191660011790558015611886576000805461ff0019166101001790555b61188e613e2f565b611896613e5f565b6118ea6040518060400160405280601681526020017541726b7265656e20524520436572746966696361746560501b815250604051806040016040528060048152602001634152454360e01b815250613e86565b61015f80546001600160a01b038086166001600160a01b03199283161790925561016080549285169290911691909117905560408051808201909152601d8082527f68747470733a2f2f7777772e61726b7265656e2e636f6d2f415245432f00000060209092019182526119619161016191614feb565b508015610ce0576000805461ff0019169055604051600181527f7f26b83ff96e1f2b6a682f133852f6798a09c465da95921460cefb38474024989060200160405180910390a1505050565b306001600160a01b037f00000000000000000000000000000000000000000000000000000000000000001614156119f55760405162461bcd60e51b81526004016102ad90615a39565b7f00000000000000000000000000000000000000000000000000000000000000006001600160a01b0316611a27613c88565b6001600160a01b031614611a4d5760405162461bcd60e51b81526004016102ad90615a73565b611a5682613c9e565b611a6282826001613ca6565b5050565b6000611a7261012f5490565b8210611ad55760405162461bcd60e51b815260206004820152602c60248201527f455243373231456e756d657261626c653a20676c6f62616c20696e646578206f60448201526b7574206f6620626f756e647360a01b60648201526084016102ad565b61012f8281548110611ae957611ae9615aad565b90600052602060002001549050919050565b611b0361506f565b600082815261016260209081526040918290208251610180810190935280546001600160a01b031683526001810180549192840191611b4190615803565b80601f0160208091040260200160405190810160405280929190818152602001828054611b6d90615803565b8015611bba5780601f10611b8f57610100808354040283529160200191611bba565b820191906000526020600020905b815481529060010190602001808311611b9d57829003601f168201915b505050918352505060028201546001600160a01b038116602083015263ffffffff600160a01b820481166040840152600160c01b90910416606082015260038201546001600160801b038116608083015260ff600160801b9091041660a082015260048201805460c090920191611c3090615803565b80601f0160208091040260200160405190810160405280929190818152602001828054611c5c90615803565b8015611ca95780601f10611c7e57610100808354040283529160200191611ca9565b820191906000526020600020905b815481529060010190602001808311611c8c57829003601f168201915b50505050508152602001600582018054611cc290615803565b80601f0160208091040260200160405190810160405280929190818152602001828054611cee90615803565b8015611d3b5780601f10611d1057610100808354040283529160200191611d3b565b820191906000526020600020905b815481529060010190602001808311611d1e57829003601f168201915b50505050508152602001600682018054611d5490615803565b80601f0160208091040260200160405190810160405280929190818152602001828054611d8090615803565b8015611dcd5780601f10611da257610100808354040283529160200191611dcd565b820191906000526020600020905b815481529060010190602001808311611db057829003601f168201915b50505050508152602001600782018054611de690615803565b80601f0160208091040260200160405190810160405280929190818152602001828054611e1290615803565b8015611e5f5780601f10611e3457610100808354040283529160200191611e5f565b820191906000526020600020905b815481529060010190602001808311611e4257829003601f168201915b50505091835250506008919091015461ffff1660209091015292915050565b6000306001600160a01b037f00000000000000000000000000000000000000000000000000000000000000001614611f195760405162461bcd60e51b815260206004820152603860248201527f555550535570677261646561626c653a206d757374206e6f742062652063616c6044820152771b1959081d1a1c9bdd59da0819195b1959d85d1958d85b1b60421b60648201526084016102ad565b50600080516020615f6a83398151915290565b611f34613ed4565b8051611a6290610161906020840190614feb565b6101605460408051635c975abb60e01b815290516000926001600160a01b031691635c975abb916004808301926020929190829003018186803b158015611f8e57600080fd5b505afa158015611fa2573d6000803e3d6000fd5b505050506040513d601f19601f82011682018060405250810190611fc6919061583e565b15611fe35760405162461bcd60e51b81526004016102ad9061585b565b611fed3383613a95565b6120095760405162461bcd60e51b81526004016102ad90615ac3565b6120138383613f33565b9392505050565b600081815260fd60205260408120546001600160a01b031680610b105760405162461bcd60e51b81526004016102ad90615aef565b610161805461205d90615803565b80601f016020809104026020016040519081016040528092919081815260200182805461208990615803565b80156120d65780601f106120ab576101008083540402835291602001916120d6565b820191906000526020600020905b8154815290600101906020018083116120b957829003601f168201915b505050505081565b60006001600160a01b0382166121485760405162461bcd60e51b815260206004820152602960248201527f4552433732313a2061646472657373207a65726f206973206e6f7420612076616044820152683634b21037bbb732b960b91b60648201526084016102ad565b506001600160a01b0316600090815260fe602052604090205490565b61216c613ed4565b6121766000614191565b565b306001600160a01b037f00000000000000000000000000000000000000000000000000000000000000001614156121c15760405162461bcd60e51b81526004016102ad90615a39565b7f00000000000000000000000000000000000000000000000000000000000000006001600160a01b03166121f3613c88565b6001600160a01b0316146122195760405162461bcd60e51b81526004016102ad90615a73565b612176613ed4565b612229613ed4565b6001600160a01b03811661226e5760405162461bcd60e51b815260206004820152600c60248201526b5a65726f204164647265737360a01b60448201526064016102ad565b61015f80546001600160a01b0319166001600160a01b0392909216919091179055565b6033546001600160a01b031690565b606060fc8054610b2590615803565b6101605460408051635c975abb60e01b815290516000926001600160a01b031691635c975abb916004808301926020929190829003018186803b1580156122f557600080fd5b505afa158015612309573d6000803e3d6000fd5b505050506040513d601f19601f8201168201806040525081019061232d919061583e565b1561234a5760405162461bcd60e51b81526004016102ad9061585b565b600082815261016260205260409020600381015460ff600160801b909104166005146123af5760405162461bcd60e51b815260206004820152601460248201527310549150ce88139bdd08131a5c5d5a591a5e995960621b60448201526064016102ad565b805460038201546101605460088401546040516308ba3aa360e01b81526001600160a01b03948516946001600160801b039094169360009316916308ba3aa39161240491879161ffff90911690600401615b21565b60206040518083038186803b15801561241c57600080fd5b505afa158015612430573d6000803e3d6000fd5b505050506040513d601f19601f820116820180604052508101906124549190615b3e565b9050336001600160a01b0382161461247e5760405162461bcd60e51b81526004016102ad90615b5b565b8161016660008282546124919190615b86565b90915550505050600391909101805460ff60801b1916600360801b17905550600192915050565b611a623383836141e3565b61016060009054906101000a90046001600160a01b03166001600160a01b0316635c975abb6040518163ffffffff1660e01b815260040160206040518083038186803b15801561251257600080fd5b505afa158015612526573d6000803e3d6000fd5b505050506040513d601f19601f8201168201806040525081019061254a919061583e565b156125675760405162461bcd60e51b81526004016102ad9061585b565b6125713382613a95565b61258d5760405162461bcd60e51b81526004016102ad90615ac3565b600081815261016260205260409020600380820154600160801b900460ff16146125c95760405162461bcd60e51b81526004016102ad90615b9d565b600381015460088201546001600160801b039091169060009061ffff168061267c578354610160546040516308ba3aa360e01b81526001600160a01b0392831692909116906308ba3aa390612624908490869060040161544f565b60206040518083038186803b15801561263c57600080fd5b505afa158015612650573d6000803e3d6000fd5b505050506040513d601f19601f820116820180604052508101906126749190615b3e565b925050612701565b61016054604051630f637d9560e41b8152600481018390526001600160a01b039091169063f637d9509060240160a06040518083038186803b1580156126c157600080fd5b505afa1580156126d5573d6000803e3d6000fd5b505050506040513d601f19601f820116820180604052508101906126f99190615941565b509194505050505b600061270c8661201a565b9050612729818488604051806020016040528060008152506142af565b60038501805460ff60801b1916600560801b1790556101668054859190600090612754908490615a21565b90915550506040517ffebfadb1cc1de21f4c0a0ab70da0a67a25b44e97f12c536bc6d347e9073c1fff90610f2f90839089908890615bca565b6127973383613a95565b6127b35760405162461bcd60e51b81526004016102ad906159bd565b6127bf848484846142af565b50505050565b61016060009054906101000a90046001600160a01b03166001600160a01b0316635c975abb6040518163ffffffff1660e01b815260040160206040518083038186803b15801561281457600080fd5b505afa158015612828573d6000803e3d6000fd5b505050506040513d601f19601f8201168201806040525081019061284c919061583e565b156128695760405162461bcd60e51b81526004016102ad9061585b565b6128733389613a95565b61288f5760405162461bcd60e51b81526004016102ad90615ac3565b600061289a8961201a565b905060006128a8828b613f33565b604080516001808252818301909252919250600091906020808301908036833701905050905081816000815181106128e2576128e2615aad565b602002602001018181525050600061016060009054906101000a90046001600160a01b03166001600160a01b031663e95218d86040518163ffffffff1660e01b815260040160206040518083038186803b15801561293f57600080fd5b505afa158015612953573d6000803e3d6000fd5b505050506040513d601f19601f820116820180604052508101906129779190615b3e565b6040516360ee6c8360e01b81529091506001600160a01b038216906360ee6c83906129b69087908f908f908f908f908f908f908f908d90600401615c14565b600060405180830381600087803b1580156129d057600080fd5b505af11580156129e4573d6000803e3d6000fd5b50505050505050505050505050505050565b6060612a0182613a02565b6000828152610162602052604081206006018054612a1e90615803565b80601f0160208091040260200160405190810160405280929190818152602001828054612a4a90615803565b8015612a975780601f10612a6c57610100808354040283529160200191612a97565b820191906000526020600020905b815481529060010190602001808311612a7a57829003601f168201915b5050505050905060006101618054612aae90615803565b80601f0160208091040260200160405190810160405280929190818152602001828054612ada90615803565b8015612b275780601f10612afc57610100808354040283529160200191612b27565b820191906000526020600020905b815481529060010190602001808311612b0a57829003601f168201915b50505050509050805160001415612b3f575092915050565b815115612b71578082604051602001612b59929190615cb3565b60405160208183030381529060405292505050919050565b612b7a846142e2565b949350505050565b612b8a613ed4565b80600080516020615f2a8339815191525b80546001600160a01b0319166001600160a01b039290921691909117905550565b6101605460408051635c975abb60e01b815290516000926001600160a01b031691635c975abb916004808301926020929190829003018186803b158015612c0257600080fd5b505afa158015612c16573d6000803e3d6000fd5b505050506040513d601f19601f82011682018060405250810190612c3a919061583e565b15612c575760405162461bcd60e51b81526004016102ad9061585b565b610b103383613f33565b61016a8181548110612c7257600080fd5b6000918252602090912001546001600160a01b0316905081565b6001600160a01b0391821660009081526101006020908152604080832093909416825291909152205460ff1690565b612cc3613ed4565b612cd5826001600160a01b0316613e20565b612d155760405162461bcd60e51b815260206004820152601160248201527020a922a19d102bb937b733903a37b5b2b760791b60448201526064016102ad565b60005b61016a54811015612e7857826001600160a01b031661016a8281548110612d4157612d41615aad565b6000918252602090912001546001600160a01b03161415612e665781612e475761016a54612d7190600190615b86565b8114612df45761016a8054612d8890600190615b86565b81548110612d9857612d98615aad565b60009182526020909120015461016a80546001600160a01b039092169183908110612dc557612dc5615aad565b9060005260206000200160006101000a8154816001600160a01b0302191690836001600160a01b031602179055505b61016a805480612e0657612e06615ce2565b60008281526020808220830160001990810180546001600160a01b03191690559092019092556001600160a01b038516825261016990526040812055505050565b506001600160a01b039190911660009081526101696020526040902055565b80612e7081615cf8565b915050612d18565b5080612eb95760405162461bcd60e51b815260206004820152601060248201526f415245433a205a65726f20507269636560801b60448201526064016102ad565b61016a8054600181019091557f17da1ae71935bc1a620f4cc216c63f7b5576c3970bae66f4178d3166b99125440180546001600160a01b0319166001600160a01b039390931692831790556000918252610169602052604090912055565b612f1f613ed4565b6001600160a01b038116612f845760405162461bcd60e51b815260206004820152602660248201527f4f776e61626c653a206e6577206f776e657220697320746865207a65726f206160448201526564647265737360d01b60648201526084016102ad565b6117a181614191565b6000816040013542811015612fdb5760405162461bcd60e51b8152602060048201526014602482015273149150d25cdcdd585b98d94e881156141254915160621b60448201526064016102ad565b61016060009054906101000a90046001600160a01b03166001600160a01b0316635c975abb6040518163ffffffff1660e01b815260040160206040518083038186803b15801561302a57600080fd5b505afa15801561303e573d6000803e3d6000fd5b505050506040513d601f19601f82011682018060405250810190613062919061583e565b1561307f5760405162461bcd60e51b81526004016102ad9061585b565b610160546001600160a01b031663b683664761309e60208701876153f9565b6040518263ffffffff1660e01b81526004016130ba91906151d7565b60206040518083038186803b1580156130d257600080fd5b505afa1580156130e6573d6000803e3d6000fd5b505050506040513d601f19601f8201168201806040525081019061310a919061583e565b6131265760405162461bcd60e51b81526004016102ad906158d6565b6131366060850160408601615d13565b63ffffffff1661314c6040860160208701615d13565b63ffffffff1610801561317357504261316b6060860160408701615d13565b63ffffffff16105b6131b45760405162461bcd60e51b815260206004820152601260248201527110549150ce8815dc9bdb99c814195c9a5bd960721b60448201526064016102ad565b610160546040805163577e764160e01b8152905133926000926001600160a01b039091169163577e764191600480820192602092909190829003018186803b1580156131ff57600080fd5b505afa158015613213573d6000803e3d6000fd5b505050506040513d601f19601f820116820180604052508101906132379190615b3e565b6040516317aa5fb760e11b81529091506001600160a01b03821690632f54bf6e906132669085906004016151d7565b60206040518083038186803b15801561327e57600080fd5b505afa158015613292573d6000803e3d6000fd5b505050506040513d601f19601f820116820180604052508101906132b6919061583e565b6132f45760405162461bcd60e51b815260206004820152600f60248201526e20a922a19d102737ba1026b4b732b960891b60448201526064016102ad565b61015f546001600160a01b031661330e60208701876153f9565b6001600160a01b0316148061334d5750610169600061333060208801886153f9565b6001600160a01b0316815260208101919091526040016000205415155b6133955760405162461bcd60e51b815260206004820152601960248201527820a922a19d102bb937b733902830bcb6b2b73a102a37b5b2b760391b60448201526064016102ad565b6133a260208601866153f9565b6001600160a01b031663d505accf8330602089013560408a01356133cc60808c0160608d01615d39565b6040516001600160e01b031960e088901b1681526001600160a01b0395861660048201529490931660248501526044840191909152606483015260ff166084820152608088013560a482015260a088013560c482015260e401600060405180830381600087803b15801561343f57600080fd5b505af1158015613453573d6000803e3d6000fd5b5050505061346161012f5490565b61346c906001615a21565b93506134788285614348565b61348061506f565b61348d60208801886153f9565b6001600160a01b03908116825260408051602080820183526000825280850191909152918516818401526134c691908901908901615d13565b63ffffffff166060808301919091526134e490880160408901615d13565b63ffffffff1660808083019190915261350290880160608901615d5c565b6001600160801b031660a0820152600060c08201526135246080880188615d79565b8080601f01602080910402602001604051908101604052809392919081815260200183838082843760009201919091525050505060e082015261356a60a0880188615d79565b8080601f0160208091040260200160405190810160405280939291908181526020018383808284376000920191909152505050506101008201526135b160c0880188615d79565b8080601f0160208091040260200160405190810160405280939291908181526020018383808284376000920191909152505050506101208201526135f860e0880188615d79565b8080601f016020809104026020016040519081016040528093929190818152602001838380828437600092018290525061014086019490945250505085815261016260209081526040909120825181546001600160a01b0319166001600160a01b039091161781558183015180518493613679926001850192910190614feb565b506040820151600282018054606085015160808601516001600160a01b039094166001600160c01b031990921691909117600160a01b63ffffffff928316021763ffffffff60c01b1916600160c01b919093160291909117905560a082015160038201805460c08501516001600160801b039093166001600160881b031990911617600160801b60ff9093169290920291909117905560e0820151805161372a916004840191602090910190614feb565b506101008201518051613747916005840191602090910190614feb565b506101208201518051613764916006840191602090910190614feb565b506101408201518051613781916007840191602090910190614feb565b5061016091909101516008909101805461ffff191661ffff90921691909117905560408051808201909152600090806137bd60208a018a6153f9565b6001600160a01b03908116825260208a8101359281019290925260008981526101638352604090819020845181546001600160a01b031916931692909217825591830151600190910155519091507f6f2b8258617ca0f7ca19a3f678b401adfe6ac598e2b59348df18c20b41d2626a9061383a908690899061544f565b60405180910390a161385e61385260208901896153f9565b33308a60200135614362565b505050505092915050565b61016060009054906101000a90046001600160a01b03166001600160a01b0316635c975abb6040518163ffffffff1660e01b815260040160206040518083038186803b1580156138b857600080fd5b505afa1580156138cc573d6000803e3d6000fd5b505050506040513d601f19601f820116820180604052508101906138f0919061583e565b1561390d5760405162461bcd60e51b81526004016102ad9061585b565b613915613ed4565b6001600160a01b0381166139265750335b6040516370a0823160e01b81526000906001600160a01b038416906370a08231906139559030906004016151d7565b60206040518083038186803b15801561396d57600080fd5b505afa158015613981573d6000803e3d6000fd5b505050506040513d601f19601f820116820180604052508101906139a59190615dbf565b9050610ce0838383614492565b60006001600160e01b031982166380ac58cd60e01b14806139e357506001600160e01b03198216635b5e139f60e01b145b80610b1057506301ffc9a760e01b6001600160e01b0319831614610b10565b613a0b816145af565b6117a15760405162461bcd60e51b81526004016102ad90615aef565b600081815260ff6020526040902080546001600160a01b0319166001600160a01b0384169081179091558190613a5c8261201a565b6001600160a01b03167f8c5be1e5ebec7d5bd14f71427d1e84f3dd0314c0f7b2291e5b200ac8c7c3b92560405160405180910390a45050565b600080613aa18361201a565b9050806001600160a01b0316846001600160a01b03161480613ac85750613ac88185612c8c565b80612b7a5750836001600160a01b0316613ae184610ba8565b6001600160a01b031614949350505050565b826001600160a01b0316613b068261201a565b6001600160a01b031614613b6a5760405162461bcd60e51b815260206004820152602560248201527f4552433732313a207472616e736665722066726f6d20696e636f72726563742060448201526437bbb732b960d91b60648201526084016102ad565b6001600160a01b038216613bcc5760405162461bcd60e51b8152602060048201526024808201527f4552433732313a207472616e7366657220746f20746865207a65726f206164646044820152637265737360e01b60648201526084016102ad565b613bd78383836145cc565b613be2600082613a27565b6001600160a01b038316600090815260fe60205260408120805460019290613c0b908490615b86565b90915550506001600160a01b038216600090815260fe60205260408120805460019290613c39908490615a21565b9091555050600081815260fd602052604080822080546001600160a01b0319166001600160a01b038681169182179092559151849391871691600080516020615fb183398151915291a4505050565b6000600080516020615f6a833981519152610adc565b6117a1613ed4565b7f4910fdfa16fed3260ed0e7147f7cc6da11a60208b5b9406d12a635614ffd91435460ff1615613cd957610ce083614804565b826001600160a01b03166352d1902d6040518163ffffffff1660e01b815260040160206040518083038186803b158015613d1257600080fd5b505afa925050508015613d42575060408051601f3d908101601f19168201909252613d3f91810190615dbf565b60015b613da55760405162461bcd60e51b815260206004820152602e60248201527f45524331393637557067726164653a206e657720696d706c656d656e7461746960448201526d6f6e206973206e6f74205555505360901b60648201526084016102ad565b600080516020615f6a8339815191528114613e145760405162461bcd60e51b815260206004820152602960248201527f45524331393637557067726164653a20756e737570706f727465642070726f786044820152681a58589b195555525160ba1b60648201526084016102ad565b50610ce0838383614884565b6001600160a01b03163b151590565b600054610100900460ff16613e565760405162461bcd60e51b81526004016102ad90615dd8565b61217633614191565b600054610100900460ff166121765760405162461bcd60e51b81526004016102ad90615dd8565b600054610100900460ff16613ead5760405162461bcd60e51b81526004016102ad90615dd8565b8151613ec09060fb906020850190614feb565b508051610ce09060fc906020840190614feb565b33613edd612291565b6001600160a01b0316146121765760405162461bcd60e51b815260206004820181905260248201527f4f776e61626c653a2063616c6c6572206973206e6f7420746865206f776e657260448201526064016102ad565b6000826001600160a01b0316613f488361201a565b6001600160a01b031614613f6e5760405162461bcd60e51b81526004016102ad90615881565b600082815261016260205260409020600390810154600160801b900460ff1614613faa5760405162461bcd60e51b81526004016102ad90615b9d565b6101605460408051631d2a431b60e31b815290516000926001600160a01b03169163e95218d8916004808301926020929190829003018186803b158015613ff057600080fd5b505afa158015614004573d6000803e3d6000fd5b505050506040513d601f19601f820116820180604052508101906140289190615b3e565b600084815261016260205260409081902080546003909101549151631bfdb9e960e01b81526001600160a01b038881166004830152918216602482018190526001600160801b03909316604482018190526064820188905293945091929190841690631bfdb9e990608401602060405180830381600087803b1580156140ad57600080fd5b505af11580156140c1573d6000803e3d6000fd5b505050506040513d601f19601f820116820180604052508101906140e59190615dbf565b93506141118684876040518060400160405280600681526020016552656465656d60d01b8152506142af565b600085815261016260205260408120600301805460ff60801b1916600160821b1790556101658054839290614147908490615a21565b90915550506040517f09cf66dcc25a3c5239815ef45655b1164e0a8899b1b543aafa376eece095ec0c9061418090889088908890615bca565b60405180910390a150505092915050565b603380546001600160a01b038381166001600160a01b0319831681179093556040519116919082907f8be0079c531659141344cd1fd0a4f28419497f9722a3daafe3b4186f6b6457e090600090a35050565b816001600160a01b0316836001600160a01b031614156142415760405162461bcd60e51b815260206004820152601960248201527822a9219b99189d1030b8383937bb32903a379031b0b63632b960391b60448201526064016102ad565b6001600160a01b0383811660008181526101006020908152604080832094871680845294825291829020805460ff191686151590811790915591519182527f17307eab39ab6107e8899845ad3d59bd9653f200f220920489ca2b5937696c31910160405180910390a3505050565b6142ba848484613af3565b6142c6848484846148a9565b6127bf5760405162461bcd60e51b81526004016102ad90615e23565b60606142ed82613a02565b60006142f76149bd565b905060008151116143175760405180602001604052806000815250612013565b80614321846149cd565b604051602001614332929190615cb3565b6040516020818303038152906040529392505050565b611a62828260405180602001604052806000815250614aca565b604080516001600160a01b0385811660248301528481166044830152606480830185905283518084039091018152608490920183526020820180516001600160e01b03166323b872dd60e01b17905291516000928392908816916143c69190615e75565b6000604051808303816000865af19150503d8060008114614403576040519150601f19603f3d011682016040523d82523d6000602084013e614408565b606091505b5091509150818015614432575080511580614432575080806020019051810190614432919061583e565b61448a5760405162461bcd60e51b8152602060048201526024808201527f5472616e7366657248656c7065723a205452414e534645525f46524f4d5f46416044820152631253115160e21b60648201526084016102ad565b505050505050565b600080846001600160a01b031663a9059cbb85856040516024016144b792919061544f565b6040516020818303038152906040529060e01b6020820180516001600160e01b0383818316178352505050506040516144f09190615e75565b6000604051808303816000865af19150503d806000811461452d576040519150601f19603f3d011682016040523d82523d6000602084013e614532565b606091505b509150915081801561455c57508051158061455c57508080602001905181019061455c919061583e565b6145a85760405162461bcd60e51b815260206004820152601f60248201527f5472616e7366657248656c7065723a205452414e534645525f4641494c45440060448201526064016102ad565b5050505050565b600090815260fd60205260409020546001600160a01b0316151590565b6001600160a01b038316156147f957600081815261016260205260409020600381015460ff600160801b90910416600514156147ca5780546101605460088301546040516308ba3aa360e01b81526001600160a01b039384169360009316916308ba3aa39161464691869161ffff90911690600401615b21565b60206040518083038186803b15801561465e57600080fd5b505afa158015614672573d6000803e3d6000fd5b505050506040513d601f19601f820116820180604052508101906146969190615b3e565b9050600061016060009054906101000a90046001600160a01b03166001600160a01b031663e95218d86040518163ffffffff1660e01b815260040160206040518083038186803b1580156146e957600080fd5b505afa1580156146fd573d6000803e3d6000fd5b505050506040513d601f19601f820116820180604052508101906147219190615b3e565b9050336001600160a01b0383161461474b5760405162461bcd60e51b81526004016102ad90615b5b565b806001600160a01b0316866001600160a01b0316141561477f5760038401805460ff60801b1916600160821b1790556147c2565b600384015461016680546001600160801b03909216918291906000906147a6908490615b86565b90915550505060038401805460ff60801b1916600360801b1790555b5050506147f7565b600381810154600160801b900460ff16146147f75760405162461bcd60e51b81526004016102ad906158aa565b505b610ce0838383614afd565b61480d81613e20565b61486f5760405162461bcd60e51b815260206004820152602d60248201527f455243313936373a206e657720696d706c656d656e746174696f6e206973206e60448201526c1bdd08184818dbdb9d1c9858dd609a1b60648201526084016102ad565b80600080516020615f6a833981519152612b9b565b61488d83614bb7565b60008251118061489a5750805b15610ce0576127bf8383614bf7565b60006148bd846001600160a01b0316613e20565b156149b257604051630a85bd0160e11b81526001600160a01b0385169063150b7a02906148f4903390899088908890600401615e91565b602060405180830381600087803b15801561490e57600080fd5b505af192505050801561493e575060408051601f3d908101601f1916820190925261493b91810190615ece565b60015b614998573d80801561496c576040519150601f19603f3d011682016040523d82523d6000602084013e614971565b606091505b5080516149905760405162461bcd60e51b81526004016102ad90615e23565b805181602001fd5b6001600160e01b031916630a85bd0160e11b149050612b7a565b506001949350505050565b60606101618054610b2590615803565b6060816149f15750506040805180820190915260018152600360fc1b602082015290565b8160005b8115614a1b5780614a0581615cf8565b9150614a149050600a83615f01565b91506149f5565b6000816001600160401b03811115614a3557614a3561522c565b6040519080825280601f01601f191660200182016040528015614a5f576020820181803683370190505b5090505b8415612b7a57614a74600183615b86565b9150614a81600a86615f15565b614a8c906030615a21565b60f81b818381518110614aa157614aa1615aad565b60200101906001600160f81b031916908160001a905350614ac3600a86615f01565b9450614a63565b614ad48383614ce9565b614ae160008484846148a9565b610ce05760405162461bcd60e51b81526004016102ad90615e23565b6001600160a01b038316614b5a57614b558161012f8054600083815261013060205260408120829055600182018355919091527f232da9e50dad2971456a78fb5cd6ff6b75019984d6e918139ce990999420f9790155565b614b7d565b816001600160a01b0316836001600160a01b031614614b7d57614b7d8382614e15565b6001600160a01b038216614b9457610ce081614eb7565b826001600160a01b0316826001600160a01b031614610ce057610ce08282614f6c565b614bc081614804565b6040516001600160a01b038216907fbc7cd75a20ee27fd9adebab32041f755214dbc6bffa90cc0225b39da2e5c2d3b90600090a250565b6060614c0283613e20565b614c5d5760405162461bcd60e51b815260206004820152602660248201527f416464726573733a2064656c65676174652063616c6c20746f206e6f6e2d636f6044820152651b9d1c9858dd60d21b60648201526084016102ad565b600080846001600160a01b031684604051614c789190615e75565b600060405180830381855af49150503d8060008114614cb3576040519150601f19603f3d011682016040523d82523d6000602084013e614cb8565b606091505b5091509150614ce08282604051806060016040528060278152602001615f8a60279139614fb2565b95945050505050565b6001600160a01b038216614d3f5760405162461bcd60e51b815260206004820181905260248201527f4552433732313a206d696e7420746f20746865207a65726f206164647265737360448201526064016102ad565b614d48816145af565b15614d945760405162461bcd60e51b815260206004820152601c60248201527b115490cdcc8c4e881d1bdad95b88185b1c9958591e481b5a5b9d195960221b60448201526064016102ad565b614da0600083836145cc565b6001600160a01b038216600090815260fe60205260408120805460019290614dc9908490615a21565b9091555050600081815260fd602052604080822080546001600160a01b0319166001600160a01b0386169081179091559051839290600080516020615fb1833981519152908290a45050565b60006001614e22846120de565b614e2c9190615b86565b600083815261012e6020526040902054909150808214614e82576001600160a01b038416600090815261012d60209081526040808320858452825280832054848452818420819055835261012e90915290208190555b50600091825261012e602090815260408084208490556001600160a01b03909416835261012d81528383209183525290812055565b61012f54600090614eca90600190615b86565b6000838152610130602052604081205461012f8054939450909284908110614ef457614ef4615aad565b906000526020600020015490508061012f8381548110614f1657614f16615aad565b6000918252602080832090910192909255828152610130909152604080822084905585825281205561012f805480614f5057614f50615ce2565b6001900381819060005260206000200160009055905550505050565b6000614f77836120de565b6001600160a01b03909316600090815261012d60209081526040808320868452825280832085905593825261012e9052919091209190915550565b60608315614fc1575081612013565b825115614fd15782518084602001fd5b8160405162461bcd60e51b81526004016102ad919061519e565b828054614ff790615803565b90600052602060002090601f016020900481019282615019576000855561505f565b82601f1061503257805160ff191683800117855561505f565b8280016001018555821561505f579182015b8281111561505f578251825591602001919060010190615044565b5061506b9291506150fe565b5090565b60405180610180016040528060006001600160a01b031681526020016060815260200160006001600160a01b03168152602001600063ffffffff168152602001600063ffffffff16815260200160006001600160801b03168152602001600060ff16815260200160608152602001606081526020016060815260200160608152602001600061ffff1681525090565b5b8082111561506b57600081556001016150ff565b6001600160e01b0319811681146117a157600080fd5b60006020828403121561513b57600080fd5b813561201381615113565b60005b83811015615161578181015183820152602001615149565b838111156127bf5750506000910152565b6000815180845261518a816020860160208601615146565b601f01601f19169290920160200192915050565b6020815260006120136020830184615172565b6000602082840312156151c357600080fd5b5035919050565b6001600160a01b03169052565b6001600160a01b0391909116815260200190565b6001600160a01b03811681146117a157600080fd5b6000806040838503121561521357600080fd5b823561521e816151eb565b946020939093013593505050565b634e487b7160e01b600052604160045260246000fd5b600082601f83011261525357600080fd5b81356001600160401b038082111561526d5761526d61522c565b604051601f8301601f19908116603f011681019082821181831017156152955761529561522c565b816040528381528660208588010111156152ae57600080fd5b836020870160208301376000602085830101528094505050505092915050565b600080600080600060a086880312156152e657600080fd5b8535945060208601356152f8816151eb565b935060408601356001600160401b038082111561531457600080fd5b61532089838a01615242565b9450606088013591508082111561533657600080fd5b61534289838a01615242565b9350608088013591508082111561535857600080fd5b5061536588828901615242565b9150509295509295909350565b60008060006060848603121561538757600080fd5b8335615392816151eb565b925060208401356153a2816151eb565b929592945050506040919091013590565b600080604083850312156153c657600080fd5b8235915060208301356001600160401b038111156153e357600080fd5b6153ef85828601615242565b9150509250929050565b60006020828403121561540b57600080fd5b8135612013816151eb565b6000806040838503121561542957600080fd5b8235615434816151eb565b91506020830135615444816151eb565b809150509250929050565b6001600160a01b03929092168252602082015260400190565b6000806040838503121561547b57600080fd5b8235615486816151eb565b915060208301356001600160401b038111156153e357600080fd5b602081526154b36020820183516151ca565b600060208301516101808060408501526154d16101a0850183615172565b915060408501516154e560608601826151ca565b50606085015163ffffffff8116608086015250608085015163ffffffff811660a08601525060a08501516001600160801b03811660c08601525060c085015160ff811660e08601525060e0850151601f1961010081878603018188015261554c8584615172565b94508088015192505061012081878603018188015261556b8584615172565b94508088015192505061014081878603018188015261558a8584615172565b9450808801519250506101608187860301818801526155a98584615172565b945080880151925050506155c28286018261ffff169052565b5090949350505050565b6000602082840312156155de57600080fd5b81356001600160401b038111156155f457600080fd5b612b7a84828501615242565b80151581146117a157600080fd5b6000806040838503121561562157600080fd5b823561562c816151eb565b9150602083013561544481615600565b6000806000806080858703121561565257600080fd5b843561565d816151eb565b9350602085013561566d816151eb565b92506040850135915060608501356001600160401b0381111561568f57600080fd5b61569b87828801615242565b91505092959194509250565b60008083601f8401126156b957600080fd5b5081356001600160401b038111156156d057600080fd5b6020830191508360208285010111156156e857600080fd5b9250929050565b60008060008060008060008060a0898b03121561570b57600080fd5b88359750602089013561571d816151eb565b965060408901356001600160401b038082111561573957600080fd5b6157458c838d016156a7565b909850965060608b013591508082111561575e57600080fd5b61576a8c838d016156a7565b909650945060808b013591508082111561578357600080fd5b506157908b828c016156a7565b999c989b5096995094979396929594505050565b60008082840360e08112156157b857600080fd5b83356001600160401b038111156157ce57600080fd5b840161010081870312156157e157600080fd5b925060c0601f19820112156157f557600080fd5b506020830190509250929050565b600181811c9082168061581757607f821691505b6020821081141561583857634e487b7160e01b600052602260045260246000fd5b50919050565b60006020828403121561585057600080fd5b815161201381615600565b6020808252600c908201526b10549150ce8814185d5cd95960a21b604082015260600190565b6020808252600f908201526e20a922a19d102737ba1027bbb732b960891b604082015260600190565b602080825260129082015271415245433a2057726f6e672053746174757360701b604082015260600190565b60208082526012908201527120a922a19d102bb937b7339024b9b9bab2b960711b604082015260600190565b60208082526010908201526f20a922a19d102737ba1024b9b9bab2b960811b604082015260600190565b6001600160801b03811681146117a157600080fd5b600080600080600060a0868803121561595957600080fd5b8551615964816151eb565b6020870151909550615975816151eb565b6040870151909450615986816151eb565b60608701519093506159978161592c565b608087015190925061ffff811681146159af57600080fd5b809150509295509295909350565b6020808252602e908201527f4552433732313a2063616c6c6572206973206e6f7420746f6b656e206f776e6560408201526d1c881b9bdc88185c1c1c9bdd995960921b606082015260800190565b634e487b7160e01b600052601160045260246000fd5b60008219821115615a3457615a34615a0b565b500190565b6020808252602c90820152600080516020615f4a83398151915260408201526b19195b1959d85d1958d85b1b60a21b606082015260800190565b6020808252602c90820152600080516020615f4a83398151915260408201526b6163746976652070726f787960a01b606082015260800190565b634e487b7160e01b600052603260045260246000fd5b60208082526012908201527110549150ce88139bdd08105c1c1c9bdd995960721b604082015260600190565b602080825260189082015277115490cdcc8c4e881a5b9d985b1a59081d1bdad95b88125160421b604082015260600190565b6001600160a01b0392909216825261ffff16602082015260400190565b600060208284031215615b5057600080fd5b8151612013816151eb565b60208082526011908201527010549150ce88139bdd08105b1b1bddd959607a1b604082015260600190565b600082821015615b9857615b98615a0b565b500390565b60208082526013908201527210549150ce88139bdd0810d95c9d1a599a5959606a1b604082015260600190565b6001600160a01b039390931683526020830191909152604082015260600190565b81835281816020850137506000828201602090810191909152601f909101601f19169091010190565b600060018060a01b03808c1683526020818c168185015260c06040850152615c4060c085018b8d615beb565b91508382036060850152615c5582898b615beb565b91508382036080850152615c6a828789615beb565b84810360a0860152855180825282870193509082019060005b81811015615c9f57845183529383019391830191600101615c83565b50909e9d5050505050505050505050505050565b60008351615cc5818460208801615146565b835190830190615cd9818360208801615146565b01949350505050565b634e487b7160e01b600052603160045260246000fd5b6000600019821415615d0c57615d0c615a0b565b5060010190565b600060208284031215615d2557600080fd5b813563ffffffff8116811461201357600080fd5b600060208284031215615d4b57600080fd5b813560ff8116811461201357600080fd5b600060208284031215615d6e57600080fd5b81356120138161592c565b6000808335601e19843603018112615d9057600080fd5b8301803591506001600160401b03821115615daa57600080fd5b6020019150368190038213156156e857600080fd5b600060208284031215615dd157600080fd5b5051919050565b6020808252602b908201527f496e697469616c697a61626c653a20636f6e7472616374206973206e6f74206960408201526a6e697469616c697a696e6760a81b606082015260800190565b60208082526032908201527f4552433732313a207472616e7366657220746f206e6f6e20455243373231526560408201527131b2b4bb32b91034b6b83632b6b2b73a32b960711b606082015260800190565b60008251615e87818460208701615146565b9190910192915050565b6001600160a01b0385811682528416602082015260408101839052608060608201819052600090615ec490830184615172565b9695505050505050565b600060208284031215615ee057600080fd5b815161201381615113565b634e487b7160e01b600052601260045260246000fd5b600082615f1057615f10615eeb565b500490565b600082615f2457615f24615eeb565b50069056fe6c14eac8c066761328a8b25c5852066ed51a1332cb48c81da799e3c09c620c9d46756e6374696f6e206d7573742062652063616c6c6564207468726f75676820360894a13ba1a3210667c828492db98dca3e2076cc3735a920a3ca505d382bbc416464726573733a206c6f772d6c6576656c2064656c65676174652063616c6c206661696c6564ddf252ad1be2c89b69c2b068fc378daa952ba7f163c4a11628f55a4df523b3efa164736f6c6343000809000a",
  "linkReferences": {},
  "deployedLinkReferences": {}
}